{
  "address": "0x68c66530835AdfC8265BAC20a7065948771FDd28",
  "abi": [
    {
      "inputs": [
        {
          "internalType": "string",
          "name": "name_",
          "type": "string"
        },
        {
          "internalType": "string",
          "name": "symbol_",
          "type": "string"
        }
      ],
      "stateMutability": "nonpayable",
      "type": "constructor"
    },
    {
      "inputs": [],
      "name": "AllowanceOverflow",
      "type": "error"
    },
    {
      "inputs": [],
      "name": "AllowanceUnderflow",
      "type": "error"
    },
    {
      "inputs": [],
      "name": "ECDSAInvalidSignature",
      "type": "error"
    },
    {
      "inputs": [
        {
          "internalType": "uint256",
          "name": "length",
          "type": "uint256"
        }
      ],
      "name": "ECDSAInvalidSignatureLength",
      "type": "error"
    },
    {
      "inputs": [
        {
          "internalType": "bytes32",
          "name": "s",
          "type": "bytes32"
        }
      ],
      "name": "ECDSAInvalidSignatureS",
      "type": "error"
    },
    {
      "inputs": [
        {
          "internalType": "address",
          "name": "",
          "type": "address"
        }
      ],
      "name": "ERC20InvalidApprover",
      "type": "error"
    },
    {
      "inputs": [
        {
          "internalType": "address",
          "name": "",
          "type": "address"
        }
      ],
      "name": "ERC20InvalidSpender",
      "type": "error"
    },
    {
      "inputs": [],
      "name": "ErrorInsufficientFunds",
      "type": "error"
    },
    {
      "inputs": [],
      "name": "InsufficientAllowance",
      "type": "error"
    },
    {
      "inputs": [],
      "name": "InsufficientBalance",
      "type": "error"
    },
    {
      "inputs": [],
      "name": "InvalidPermit",
      "type": "error"
    },
    {
      "inputs": [],
      "name": "InvalidShortString",
      "type": "error"
    },
    {
      "inputs": [],
      "name": "PermitExpired",
      "type": "error"
    },
    {
      "inputs": [],
      "name": "SignerNotMessageSender",
      "type": "error"
    },
    {
      "inputs": [],
      "name": "SignerNotOwner",
      "type": "error"
    },
    {
      "inputs": [
        {
          "internalType": "string",
          "name": "str",
          "type": "string"
        }
      ],
      "name": "StringTooLong",
      "type": "error"
    },
    {
      "inputs": [],
      "name": "TotalSupplyOverflow",
      "type": "error"
    },
    {
      "anonymous": false,
      "inputs": [
        {
          "indexed": true,
          "internalType": "address",
          "name": "owner",
          "type": "address"
        },
        {
          "indexed": true,
          "internalType": "address",
          "name": "spender",
          "type": "address"
        },
        {
          "indexed": false,
          "internalType": "uint256",
          "name": "amount",
          "type": "uint256"
        }
      ],
      "name": "Approval",
      "type": "event"
    },
    {
      "anonymous": false,
      "inputs": [
        {
          "indexed": true,
          "internalType": "address",
          "name": "owner",
          "type": "address"
        },
        {
          "indexed": true,
          "internalType": "address",
          "name": "spender",
          "type": "address"
        }
      ],
      "name": "ApprovalEncrypted",
      "type": "event"
    },
    {
      "anonymous": false,
      "inputs": [],
      "name": "EIP712DomainChanged",
      "type": "event"
    },
    {
      "anonymous": false,
      "inputs": [
        {
          "indexed": true,
          "internalType": "address",
          "name": "from",
          "type": "address"
        },
        {
          "indexed": true,
          "internalType": "address",
          "name": "to",
          "type": "address"
        },
        {
          "indexed": false,
          "internalType": "uint256",
          "name": "amount",
          "type": "uint256"
        }
      ],
      "name": "Transfer",
      "type": "event"
    },
    {
      "anonymous": false,
      "inputs": [
        {
          "indexed": true,
          "internalType": "address",
          "name": "from",
          "type": "address"
        },
        {
          "indexed": true,
          "internalType": "address",
          "name": "to",
          "type": "address"
        }
      ],
      "name": "TransferEncrypted",
      "type": "event"
    },
    {
      "inputs": [],
      "name": "DOMAIN_SEPARATOR",
      "outputs": [
        {
          "internalType": "bytes32",
          "name": "result",
          "type": "bytes32"
        }
      ],
      "stateMutability": "view",
      "type": "function"
    },
    {
      "inputs": [
        {
          "internalType": "address",
          "name": "owner",
          "type": "address"
        },
        {
          "internalType": "address",
          "name": "spender",
          "type": "address"
        }
      ],
      "name": "_allowanceEncrypted",
      "outputs": [
        {
          "internalType": "euint32",
          "name": "",
          "type": "uint256"
        }
      ],
      "stateMutability": "view",
      "type": "function"
    },
    {
      "inputs": [
        {
          "internalType": "address",
          "name": "owner",
          "type": "address"
        },
        {
          "internalType": "address",
          "name": "spender",
          "type": "address"
        }
      ],
      "name": "allowance",
      "outputs": [
        {
          "internalType": "uint256",
          "name": "result",
          "type": "uint256"
        }
      ],
      "stateMutability": "view",
      "type": "function"
    },
    {
      "inputs": [
        {
          "internalType": "address",
          "name": "spender",
          "type": "address"
        },
        {
          "components": [
            {
              "internalType": "bytes32",
              "name": "publicKey",
              "type": "bytes32"
            },
            {
              "internalType": "bytes",
              "name": "signature",
              "type": "bytes"
            }
          ],
          "internalType": "struct Permission",
          "name": "permission",
          "type": "tuple"
        }
      ],
      "name": "allowanceEncrypted",
      "outputs": [
        {
          "internalType": "bytes",
          "name": "",
          "type": "bytes"
        }
      ],
      "stateMutability": "view",
      "type": "function"
    },
    {
      "inputs": [
        {
          "internalType": "address",
          "name": "spender",
          "type": "address"
        },
        {
          "internalType": "uint256",
          "name": "amount",
          "type": "uint256"
        }
      ],
      "name": "approve",
      "outputs": [
        {
          "internalType": "bool",
          "name": "",
          "type": "bool"
        }
      ],
      "stateMutability": "nonpayable",
      "type": "function"
    },
    {
      "inputs": [
        {
          "internalType": "address",
          "name": "spender",
          "type": "address"
        },
        {
          "components": [
            {
              "internalType": "bytes",
              "name": "data",
              "type": "bytes"
            }
          ],
          "internalType": "struct inEuint32",
          "name": "value",
          "type": "tuple"
        }
      ],
      "name": "approveEncrypted",
      "outputs": [
        {
          "internalType": "bool",
          "name": "",
          "type": "bool"
        }
      ],
      "stateMutability": "nonpayable",
      "type": "function"
    },
    {
      "inputs": [
        {
          "internalType": "address",
          "name": "owner",
          "type": "address"
        }
      ],
      "name": "balanceOf",
      "outputs": [
        {
          "internalType": "uint256",
          "name": "result",
          "type": "uint256"
        }
      ],
      "stateMutability": "view",
      "type": "function"
    },
    {
      "inputs": [
        {
          "internalType": "address",
          "name": "account",
          "type": "address"
        },
        {
          "components": [
            {
              "internalType": "bytes32",
              "name": "publicKey",
              "type": "bytes32"
            },
            {
              "internalType": "bytes",
              "name": "signature",
              "type": "bytes"
            }
          ],
          "internalType": "struct Permission",
          "name": "auth",
          "type": "tuple"
        }
      ],
      "name": "balanceOfEncrypted",
      "outputs": [
        {
          "internalType": "bytes",
          "name": "",
          "type": "bytes"
        }
      ],
      "stateMutability": "view",
      "type": "function"
    },
    {
      "inputs": [],
      "name": "decimals",
      "outputs": [
        {
          "internalType": "uint8",
          "name": "",
          "type": "uint8"
        }
      ],
      "stateMutability": "pure",
      "type": "function"
    },
    {
      "inputs": [],
      "name": "eip712Domain",
      "outputs": [
        {
          "internalType": "bytes1",
          "name": "fields",
          "type": "bytes1"
        },
        {
          "internalType": "string",
          "name": "name",
          "type": "string"
        },
        {
          "internalType": "string",
          "name": "version",
          "type": "string"
        },
        {
          "internalType": "uint256",
          "name": "chainId",
          "type": "uint256"
        },
        {
          "internalType": "address",
          "name": "verifyingContract",
          "type": "address"
        },
        {
          "internalType": "bytes32",
          "name": "salt",
          "type": "bytes32"
        },
        {
          "internalType": "uint256[]",
          "name": "extensions",
          "type": "uint256[]"
        }
      ],
      "stateMutability": "view",
      "type": "function"
    },
    {
      "inputs": [],
      "name": "name",
      "outputs": [
        {
          "internalType": "string",
          "name": "",
          "type": "string"
        }
      ],
      "stateMutability": "view",
      "type": "function"
    },
    {
      "inputs": [
        {
          "internalType": "address",
          "name": "owner",
          "type": "address"
        }
      ],
      "name": "nonces",
      "outputs": [
        {
          "internalType": "uint256",
          "name": "result",
          "type": "uint256"
        }
      ],
      "stateMutability": "view",
      "type": "function"
    },
    {
      "inputs": [
        {
          "internalType": "address",
          "name": "owner",
          "type": "address"
        },
        {
          "internalType": "address",
          "name": "spender",
          "type": "address"
        },
        {
          "internalType": "uint256",
          "name": "value",
          "type": "uint256"
        },
        {
          "internalType": "uint256",
          "name": "deadline",
          "type": "uint256"
        },
        {
          "internalType": "uint8",
          "name": "v",
          "type": "uint8"
        },
        {
          "internalType": "bytes32",
          "name": "r",
          "type": "bytes32"
        },
        {
          "internalType": "bytes32",
          "name": "s",
          "type": "bytes32"
        }
      ],
      "name": "permit",
      "outputs": [],
      "stateMutability": "nonpayable",
      "type": "function"
    },
    {
      "inputs": [],
      "name": "symbol",
      "outputs": [
        {
          "internalType": "string",
          "name": "",
          "type": "string"
        }
      ],
      "stateMutability": "view",
      "type": "function"
    },
    {
      "inputs": [],
      "name": "totalSupply",
      "outputs": [
        {
          "internalType": "uint256",
          "name": "result",
          "type": "uint256"
        }
      ],
      "stateMutability": "view",
      "type": "function"
    },
    {
      "inputs": [
        {
          "internalType": "address",
          "name": "to",
          "type": "address"
        },
        {
          "internalType": "uint256",
          "name": "amount",
          "type": "uint256"
        }
      ],
      "name": "transfer",
      "outputs": [
        {
          "internalType": "bool",
          "name": "",
          "type": "bool"
        }
      ],
      "stateMutability": "nonpayable",
      "type": "function"
    },
    {
      "inputs": [
        {
          "internalType": "address",
          "name": "to",
          "type": "address"
        },
        {
          "components": [
            {
              "internalType": "bytes",
              "name": "data",
              "type": "bytes"
            }
          ],
          "internalType": "struct inEuint32",
          "name": "encryptedAmount",
          "type": "tuple"
        }
      ],
      "name": "transferEncrypted",
      "outputs": [
        {
          "internalType": "euint32",
          "name": "",
          "type": "uint256"
        }
      ],
      "stateMutability": "nonpayable",
      "type": "function"
    },
    {
      "inputs": [
        {
          "internalType": "address",
          "name": "to",
          "type": "address"
        },
        {
          "internalType": "euint32",
          "name": "amount",
          "type": "uint256"
        }
      ],
      "name": "transferEncrypted",
      "outputs": [
        {
          "internalType": "euint32",
          "name": "",
          "type": "uint256"
        }
      ],
      "stateMutability": "nonpayable",
      "type": "function"
    },
    {
      "inputs": [
        {
          "internalType": "address",
          "name": "from",
          "type": "address"
        },
        {
          "internalType": "address",
          "name": "to",
          "type": "address"
        },
        {
          "internalType": "uint256",
          "name": "amount",
          "type": "uint256"
        }
      ],
      "name": "transferFrom",
      "outputs": [
        {
          "internalType": "bool",
          "name": "",
          "type": "bool"
        }
      ],
      "stateMutability": "nonpayable",
      "type": "function"
    },
    {
      "inputs": [
        {
          "internalType": "address",
          "name": "from",
          "type": "address"
        },
        {
          "internalType": "address",
          "name": "to",
          "type": "address"
        },
        {
          "components": [
            {
              "internalType": "bytes",
              "name": "data",
              "type": "bytes"
            }
          ],
          "internalType": "struct inEuint32",
          "name": "value",
          "type": "tuple"
        }
      ],
      "name": "transferFromEncrypted",
      "outputs": [
        {
          "internalType": "euint32",
          "name": "",
          "type": "uint256"
        }
      ],
      "stateMutability": "nonpayable",
      "type": "function"
    },
    {
      "inputs": [
        {
          "internalType": "address",
          "name": "from",
          "type": "address"
        },
        {
          "internalType": "address",
          "name": "to",
          "type": "address"
        },
        {
          "internalType": "euint32",
          "name": "value",
          "type": "uint256"
        }
      ],
      "name": "transferFromEncrypted",
      "outputs": [
        {
          "internalType": "euint32",
          "name": "",
          "type": "uint256"
        }
      ],
      "stateMutability": "nonpayable",
      "type": "function"
    },
    {
      "inputs": [
        {
          "internalType": "uint32",
          "name": "amount",
          "type": "uint32"
        }
      ],
      "name": "unwrap",
      "outputs": [],
      "stateMutability": "nonpayable",
      "type": "function"
    },
    {
      "inputs": [
        {
          "internalType": "uint32",
          "name": "amount",
          "type": "uint32"
        }
      ],
      "name": "wrap",
      "outputs": [],
      "stateMutability": "nonpayable",
      "type": "function"
    }
  ],
  "transactionHash": "0x2497557e785235e7ba7a8b38a794b1afd1347e84a4295adade4136c8e18c85cd",
  "args": [
    "Name",
    "SYM"
  ],
  "numDeployments": 2,
  "solcInputHash": "dcd5096d59c839981ccf80038283b270",
  "bytecode": "0x6101606040526200001760006200024e60201b60201c565b6004553480156200002757600080fd5b506040516200436a3803806200436a83398181016040528101906200004d9190620007d9565b6040518060400160405280601181526020017f4668656e6978205065726d697373696f6e0000000000000000000000000000008152506040518060400160405280600381526020017f312e300000000000000000000000000000000000000000000000000000000000815250620000cf6000836200026a60201b90919060201c565b6101208181525050620000ed6001826200026a60201b90919060201c565b6101408181525050818051906020012060e08181525050808051906020012061010081815250504660a081815250506200012c620002c260201b60201c565b608081815250503073ffffffffffffffffffffffffffffffffffffffff1660c08173ffffffffffffffffffffffffffffffffffffffff1681525050505081600590816200017a919062000aa9565b5080600690816200018c919062000aa9565b506000620001a160086200024e60201b60201c565b9050620001ee600260003373ffffffffffffffffffffffffffffffffffffffff1673ffffffffffffffffffffffffffffffffffffffff16815260200190815260200160002054826200031f565b600260003373ffffffffffffffffffffffffffffffffffffffff1673ffffffffffffffffffffffffffffffffffffffff168152602001908152602001600020819055506200023f600454826200031f565b60048190555050505062000f6a565b6000620002638260026200033b60201b60201c565b9050919050565b600060208351101562000290576200028883620003f260201b60201c565b9050620002bc565b82620002a2836200045f60201b60201c565b6000019081620002b3919062000aa9565b5060ff60001b90505b92915050565b60007f8b73c3c69bb8fe3d512ecc4cf759cc79239f7b179b0ffacaa9a75d522b39400f60e0516101005146306040516020016200030495949392919062000c01565b60405160208183030381529060405280519060200120905090565b60006200033383836200046960201b60201c565b905092915050565b60006060608073ffffffffffffffffffffffffffffffffffffffff166319e1c5c46200036d866200050b60201b60201c565b856040518363ffffffff1660e01b81526004016200038d92919062000cd9565b600060405180830381865afa158015620003ab573d6000803e3d6000fd5b505050506040513d6000823e3d601f19601f82011682018060405250810190620003d6919062000dc1565b9050620003e9816200056c60201b60201c565b91505092915050565b600080829050601f815111156200044257826040517f305a27a900000000000000000000000000000000000000000000000000000000815260040162000439919062000e64565b60405180910390fd5b805181620004509062000eaf565b60001c1760001b915050919050565b6000819050919050565b60006200047c836200057a60201b60201c565b62000496576200049360006200024e60201b60201c565b92505b620004a7826200057a60201b60201c565b620004c157620004be60006200024e60201b60201c565b91505b600083905060008390506000620004fd60028484608073ffffffffffffffffffffffffffffffffffffffff16622df6196200058760201b60201c565b905080935050505092915050565b6060602067ffffffffffffffff8111156200052b576200052a62000675565b5b6040519080825280601f01601f1916602001820160405280156200055e5781602001600182028036833780820191505090505b509050816020820152919050565b600060208201519050919050565b6000808214159050919050565b600060608383886200059f896200050b60201b60201c565b620005b0896200050b60201b60201c565b6040518463ffffffff1660e01b8152600401620005d09392919062000f1f565b600060405180830381865afa158015620005ee573d6000803e3d6000fd5b505050506040513d6000823e3d601f19601f8201168201806040525081019062000619919062000dc1565b90506200062c816200063860201b60201c565b91505095945050505050565b600060208201519050919050565b6000604051905090565b600080fd5b600080fd5b600080fd5b600080fd5b6000601f19601f8301169050919050565b7f4e487b7100000000000000000000000000000000000000000000000000000000600052604160045260246000fd5b620006af8262000664565b810181811067ffffffffffffffff82111715620006d157620006d062000675565b5b80604052505050565b6000620006e662000646565b9050620006f48282620006a4565b919050565b600067ffffffffffffffff82111562000717576200071662000675565b5b620007228262000664565b9050602081019050919050565b60005b838110156200074f57808201518184015260208101905062000732565b60008484015250505050565b6000620007726200076c84620006f9565b620006da565b9050828152602081018484840111156200079157620007906200065f565b5b6200079e8482856200072f565b509392505050565b600082601f830112620007be57620007bd6200065a565b5b8151620007d08482602086016200075b565b91505092915050565b60008060408385031215620007f357620007f262000650565b5b600083015167ffffffffffffffff81111562000814576200081362000655565b5b6200082285828601620007a6565b925050602083015167ffffffffffffffff81111562000846576200084562000655565b5b6200085485828601620007a6565b9150509250929050565b600081519050919050565b7f4e487b7100000000000000000000000000000000000000000000000000000000600052602260045260246000fd5b60006002820490506001821680620008b157607f821691505b602082108103620008c757620008c662000869565b5b50919050565b60008190508160005260206000209050919050565b60006020601f8301049050919050565b600082821b905092915050565b600060088302620009317fffffffffffffffffffffffffffffffffffffffffffffffffffffffffffffffff82620008f2565b6200093d8683620008f2565b95508019841693508086168417925050509392505050565b6000819050919050565b6000819050919050565b60006200098a620009846200097e8462000955565b6200095f565b62000955565b9050919050565b6000819050919050565b620009a68362000969565b620009be620009b58262000991565b848454620008ff565b825550505050565b600090565b620009d5620009c6565b620009e28184846200099b565b505050565b5b8181101562000a0a57620009fe600082620009cb565b600181019050620009e8565b5050565b601f82111562000a595762000a2381620008cd565b62000a2e84620008e2565b8101602085101562000a3e578190505b62000a5662000a4d85620008e2565b830182620009e7565b50505b505050565b600082821c905092915050565b600062000a7e6000198460080262000a5e565b1980831691505092915050565b600062000a99838362000a6b565b9150826002028217905092915050565b62000ab4826200085e565b67ffffffffffffffff81111562000ad05762000acf62000675565b5b62000adc825462000898565b62000ae982828562000a0e565b600060209050601f83116001811462000b21576000841562000b0c578287015190505b62000b18858262000a8b565b86555062000b88565b601f19841662000b3186620008cd565b60005b8281101562000b5b5784890151825560018201915060208501945060208101905062000b34565b8683101562000b7b578489015162000b77601f89168262000a6b565b8355505b6001600288020188555050505b505050505050565b6000819050919050565b62000ba58162000b90565b82525050565b62000bb68162000955565b82525050565b600073ffffffffffffffffffffffffffffffffffffffff82169050919050565b600062000be98262000bbc565b9050919050565b62000bfb8162000bdc565b82525050565b600060a08201905062000c18600083018862000b9a565b62000c27602083018762000b9a565b62000c36604083018662000b9a565b62000c45606083018562000bab565b62000c54608083018462000bf0565b9695505050505050565b600081519050919050565b600082825260208201905092915050565b600062000c878262000c5e565b62000c93818562000c69565b935062000ca58185602086016200072f565b62000cb08162000664565b840191505092915050565b600060ff82169050919050565b62000cd38162000cbb565b82525050565b6000604082019050818103600083015262000cf5818562000c7a565b905062000d06602083018462000cc8565b9392505050565b600067ffffffffffffffff82111562000d2b5762000d2a62000675565b5b62000d368262000664565b9050602081019050919050565b600062000d5a62000d548462000d0d565b620006da565b90508281526020810184848401111562000d795762000d786200065f565b5b62000d868482856200072f565b509392505050565b600082601f83011262000da65762000da56200065a565b5b815162000db884826020860162000d43565b91505092915050565b60006020828403121562000dda5762000dd962000650565b5b600082015167ffffffffffffffff81111562000dfb5762000dfa62000655565b5b62000e098482850162000d8e565b91505092915050565b600082825260208201905092915050565b600062000e30826200085e565b62000e3c818562000e12565b935062000e4e8185602086016200072f565b62000e598162000664565b840191505092915050565b6000602082019050818103600083015262000e80818462000e23565b905092915050565b6000819050602082019050919050565b600062000ea6825162000b90565b80915050919050565b600062000ebc8262000c5e565b8262000ec88462000e88565b905062000ed58162000e98565b9250602082101562000f185762000f137fffffffffffffffffffffffffffffffffffffffffffffffffffffffffffffffff83602003600802620008f2565b831692505b5050919050565b600060608201905062000f36600083018662000cc8565b818103602083015262000f4a818562000c7a565b9050818103604083015262000f60818462000c7a565b9050949350505050565b60805160a05160c05160e0516101005161012051610140516133a562000fc56000396000611405015260006113ca0152600061210e015260006120ed0152600061182e01526000611884015260006118ad01526133a56000f3fe608060405234801561001057600080fd5b506004361061014d5760003560e01c806370a08231116100c3578063a9059cbb1161007c578063a9059cbb146103f4578063af575a0014610424578063c4224c1914610454578063d505accf14610484578063d918156e146104a0578063dd62ed3e146104d05761014d565b806370a08231146103065780637ecebe001461033657806384b0196e146103665780638624a3491461038a57806395d89b41146103ba5780639f284be7146103d85761014d565b8063313ce56711610115578063313ce5671461021e5780633644e5151461023c57806339c217f71461025a5780635356c4291461028a57806360277204146102ba5780636e0505e1146102ea5761014d565b806306fdde0314610152578063095ea7b31461017057806318160ddd146101a057806323b872dd146101be57806323db9354146101ee575b600080fd5b61015a610500565b60405161016791906124cf565b60405180910390f35b61018a60048036038101906101859190612599565b610592565b60405161019791906125f4565b60405180910390f35b6101a86105e6565b6040516101b5919061261e565b60405180910390f35b6101d860048036038101906101d39190612639565b6105f8565b6040516101e591906125f4565b60405180910390f35b6102086004803603810190610203919061268c565b6106cd565b6040516102159190612707565b60405180910390f35b610226610754565b604051610233919061273e565b60405180910390f35b610244610759565b6040516102519190612772565b60405180910390f35b610274600480360381019061026f91906127b1565b6107eb565b6040516102819190612707565b60405180910390f35b6102a4600480360381019061029f919061282c565b610810565b6040516102b191906128dd565b60405180910390f35b6102d460048036038101906102cf9190612ad6565b61090e565b6040516102e191906128dd565b60405180910390f35b61030460048036038101906102ff9190612b6e565b610a44565b005b610320600480360381019061031b9190612b9b565b610b7b565b60405161032d919061261e565b60405180910390f35b610350600480360381019061034b9190612b9b565b610b96565b60405161035d919061261e565b60405180910390f35b61036e610bb1565b6040516103819796959493929190612cd0565b60405180910390f35b6103a4600480360381019061039f9190612d54565b610c5b565b6040516103b19190612707565b60405180910390f35b6103c2610c99565b6040516103cf91906124cf565b60405180910390f35b6103f260048036038101906103ed9190612b6e565b610d2b565b005b61040e60048036038101906104099190612599565b610e38565b60405161041b91906125f4565b60405180910390f35b61043e60048036038101906104399190612def565b610eca565b60405161044b9190612707565b60405180910390f35b61046e60048036038101906104699190612e42565b610ef7565b60405161047b9190612707565b60405180910390f35b61049e60048036038101906104999190612eae565b610f0c565b005b6104ba60048036038101906104b591906127b1565b6110b0565b6040516104c791906125f4565b60405180910390f35b6104ea60048036038101906104e5919061268c565b6110d8565b6040516104f7919061261e565b60405180910390f35b60606005805461050f90612f7f565b80601f016020809104026020016040519081016040528092919081815260200182805461053b90612f7f565b80156105885780601f1061055d57610100808354040283529160200191610588565b820191906000526020600020905b81548152906001019060200180831161056b57829003601f168201915b5050505050905090565b600082602052637f5e9f20600c5233600052816034600c205581600052602c5160601c337f8c5be1e5ebec7d5bd14f71427d1e84f3dd0314c0f7b2291e5b200ac8c7c3b92560206000a36001905092915050565b60006805345cdf77eb68f44c54905090565b60006106058484846110f8565b8360601b33602052637f5e9f208117600c526034600c2080546001810115610643578085111561063d576313be252b6000526004601cfd5b84810382555b6387a211a28317600c526020600c2080548087111561066a5763f4d678b86000526004601cfd5b8681038255876000526020600c2087815401815587602052600c5160601c8660601c7fddf252ad1be2c89b69c2b068fc378daa952ba7f163c4a11628f55a4df523b3ef602080a35050505050506106c28484846110fd565b600190509392505050565b6000600360008473ffffffffffffffffffffffffffffffffffffffff1673ffffffffffffffffffffffffffffffffffffffff16815260200190815260200160002060008373ffffffffffffffffffffffffffffffffffffffff1673ffffffffffffffffffffffffffffffffffffffff16815260200190815260200160002054905092915050565b600090565b600080610764611102565b90506000801b810361078257610778610500565b8051906020012090505b6040517f8b73c3c69bb8fe3d512ecc4cf759cc79239f7b179b0ffacaa9a75d522b39400f81528160208201527fc89efdaa54c0f20c7adf612882df0950f5a951637e0307cdcb4c672f298b8bc6604082015246606082015230608082015260a081209250505090565b600061080883610803846107fe90613008565b611107565b610ef7565b905092915050565b60608161081c9061301b565b60006108737f6bdaeb2d29561f159c7ef98b16b27015fb2aeb87209c7ee656226d912f59927d836000015160405160200161085892919061302e565b6040516020818303038152906040528051906020012061111d565b90506000610885828460200151611137565b90503373ffffffffffffffffffffffffffffffffffffffff168173ffffffffffffffffffffffffffffffffffffffff16146108ec576040517f3093a27700000000000000000000000000000000000000000000000000000000815260040160405180910390fd5b6109036108f933886106cd565b8660000135611163565b935050505092915050565b6060818360006109697f6bdaeb2d29561f159c7ef98b16b27015fb2aeb87209c7ee656226d912f59927d846000015160405160200161094e92919061302e565b6040516020818303038152906040528051906020012061111d565b9050600061097b828560200151611137565b90508273ffffffffffffffffffffffffffffffffffffffff168173ffffffffffffffffffffffffffffffffffffffff16146109e2576040517f51c65eae00000000000000000000000000000000000000000000000000000000815260040160405180910390fd5b610a388660000151600260008a73ffffffffffffffffffffffffffffffffffffffff1673ffffffffffffffffffffffffffffffffffffffff1681526020019081526020016000205461119990919063ffffffff16565b94505050505092915050565b6000610a558263ffffffff166111ad565b90506000610abe610aae83600260003373ffffffffffffffffffffffffffffffffffffffff1673ffffffffffffffffffffffffffffffffffffffff168152602001908152602001600020546111c190919063ffffffff16565b83610ab960006111ad565b6111d5565b9050610b09600260003373ffffffffffffffffffffffffffffffffffffffff1673ffffffffffffffffffffffffffffffffffffffff1681526020019081526020016000205482611253565b600260003373ffffffffffffffffffffffffffffffffffffffff1673ffffffffffffffffffffffffffffffffffffffff16815260200190815260200160002081905550610b5860045482611253565b600481905550610b7633610b6b83611267565b63ffffffff1661132a565b505050565b60006387a211a2600c52816000526020600c20549050919050565b60006338377508600c52816000526020600c20549050919050565b600060608060008060006060610bc56113c1565b610bcd6113fc565b46306000801b600067ffffffffffffffff811115610bee57610bed612904565b5b604051908082528060200260200182016040528015610c1c5781602001602082028036833780820191505090505b507f0f00000000000000000000000000000000000000000000000000000000000000959493929190965096509650965096509650965090919293949596565b600080610c7083610c6b90613008565b611107565b90506000610c7f863384611437565b9050610c8c868683611474565b5080925050509392505050565b606060068054610ca890612f7f565b80601f0160208091040260200160405190810160405280929190818152602001828054610cd490612f7f565b8015610d215780601f10610cf657610100808354040283529160200191610d21565b820191906000526020600020905b815481529060010190602001808311610d0457829003601f168201915b5050505050905090565b8063ffffffff16610d3b33610b7b565b1015610d73576040517ffda7bbda00000000000000000000000000000000000000000000000000000000815260040160405180910390fd5b610d83338263ffffffff16611601565b6000610d948263ffffffff166111ad565b9050610ddf600260003373ffffffffffffffffffffffffffffffffffffffff1673ffffffffffffffffffffffffffffffffffffffff1681526020019081526020016000205482611698565b600260003373ffffffffffffffffffffffffffffffffffffffff1673ffffffffffffffffffffffffffffffffffffffff16815260200190815260200160002081905550610e2e60045482611698565b6004819055505050565b6000610e453384846110f8565b6387a211a2600c52336000526020600c20805480841115610e6e5763f4d678b86000526004601cfd5b8381038255846000526020600c2084815401815584602052600c5160601c337fddf252ad1be2c89b69c2b068fc378daa952ba7f163c4a11628f55a4df523b3ef602080a3505050610ec03384846110fd565b6001905092915050565b6000808290506000610edd863384611437565b9050610eea868683611474565b5080925050509392505050565b6000610f04338484611474565b905092915050565b6000610f16611102565b90506000801b8103610f3457610f2a610500565b8051906020012090505b84421115610f4a57631a15a3cc6000526004601cfd5b6040518860601b60601c98508760601b60601c975065383775081901600e52886000526020600c2080547f8b73c3c69bb8fe3d512ecc4cf759cc79239f7b179b0ffacaa9a75d522b39400f83528360208401527fc89efdaa54c0f20c7adf612882df0950f5a951637e0307cdcb4c672f298b8bc6604084015246606084015230608084015260a08320602e527f6e71edae12b1b97f4d1f60370fef10105fa2faae0126114a169c64845d6126c983528a60208401528960408401528860608401528060808401528760a084015260c08320604e526042602c206000528660ff1660205285604052846060526020806080600060015afa8b3d51146110565763ddafbaef6000526004601cfd5b80820183558a637f5e9f2060a01b17604052896034602c20558a8c7f8c5be1e5ebec7d5bd14f71427d1e84f3dd0314c0f7b2291e5b200ac8c7c3b925602060608801a3836040526000606052505050505050505050505050565b60006110ce33846110c9856110c490613008565b611107565b6116ac565b6001905092915050565b600081602052637f5e9f20600c52826000526034600c2054905092915050565b505050565b505050565b600090565b60006111168260000151611816565b9050919050565b600061113061112a61182a565b836118e1565b9050919050565b6000806000806111478686611922565b925092509250611157828261197e565b82935050505092915050565b606061116e83611ae2565b61117f5761117c60006111ad565b92505b600083905061119060028285611aef565b91505092915050565b60606111a58383611163565b905092915050565b60006111ba826002611ba5565b9050919050565b60006111cd8383611c47565b905092915050565b60006111e084611cc0565b6111f1576111ee6000611ccd565b93505b6111fa83611ae2565b61120b5761120860006111ad565b92505b61121482611ae2565b6112255761122260006111ad565b91505b60008490506000849050600084905060006112436002858585611ce1565b9050809450505050509392505050565b600061125f8383611d99565b905092915050565b600061127282611ae2565b6112835761128060006111ad565b91505b6000829050600061129382611e12565b90506000608073ffffffffffffffffffffffffffffffffffffffff166373cc01546002846040518363ffffffff1660e01b81526004016112d4929190613057565b602060405180830381865afa1580156112f1573d6000803e3d6000fd5b505050506040513d601f19601f82011682018060405250810190611315919061309c565b905061132081611e6f565b9350505050919050565b611336600083836110f8565b6805345cdf77eb68f44c548181018181101561135a5763e5cfe9576000526004601cfd5b806805345cdf77eb68f44c556387a211a2600c52836000526020600c2083815401815583602052600c5160601c60007fddf252ad1be2c89b69c2b068fc378daa952ba7f163c4a11628f55a4df523b3ef602080a35050506113bd600083836110fd565b5050565b60606113f760007f0000000000000000000000000000000000000000000000000000000000000000611e7990919063ffffffff16565b905090565b606061143260017f0000000000000000000000000000000000000000000000000000000000000000611e7990919063ffffffff16565b905090565b60008061144485856106cd565b905060006114528285611f29565b905061146886866114638585611253565b6116ac565b80925050509392505050565b6000806114dc6114cc600260008873ffffffffffffffffffffffffffffffffffffffff1673ffffffffffffffffffffffffffffffffffffffff1681526020019081526020016000205485611fa290919063ffffffff16565b846114d760006111ad565b6111d5565b9050611527600260008673ffffffffffffffffffffffffffffffffffffffff1673ffffffffffffffffffffffffffffffffffffffff1681526020019081526020016000205482611698565b600260008673ffffffffffffffffffffffffffffffffffffffff1673ffffffffffffffffffffffffffffffffffffffff168152602001908152602001600020819055506115b3600260008773ffffffffffffffffffffffffffffffffffffffff1673ffffffffffffffffffffffffffffffffffffffff1681526020019081526020016000205482611253565b600260008773ffffffffffffffffffffffffffffffffffffffff1673ffffffffffffffffffffffffffffffffffffffff16815260200190815260200160002081905550809150509392505050565b61160d826000836110f8565b6387a211a2600c52816000526020600c208054808311156116365763f4d678b86000526004601cfd5b8281038255826805345cdf77eb68f44c54036805345cdf77eb68f44c558260005260008460601b60601c7fddf252ad1be2c89b69c2b068fc378daa952ba7f163c4a11628f55a4df523b3ef60206000a35050611694826000836110fd565b5050565b60006116a48383611fb6565b905092915050565b600073ffffffffffffffffffffffffffffffffffffffff168373ffffffffffffffffffffffffffffffffffffffff160361171e5760006040517fe602df0500000000000000000000000000000000000000000000000000000000815260040161171591906130c9565b60405180910390fd5b600073ffffffffffffffffffffffffffffffffffffffff168273ffffffffffffffffffffffffffffffffffffffff16036117905760006040517f94280d6200000000000000000000000000000000000000000000000000000000815260040161178791906130c9565b60405180910390fd5b80600360008573ffffffffffffffffffffffffffffffffffffffff1673ffffffffffffffffffffffffffffffffffffffff16815260200190815260200160002060008473ffffffffffffffffffffffffffffffffffffffff1673ffffffffffffffffffffffffffffffffffffffff16815260200190815260200160002081905550505050565b600061182382600261202e565b9050919050565b60007f000000000000000000000000000000000000000000000000000000000000000073ffffffffffffffffffffffffffffffffffffffff163073ffffffffffffffffffffffffffffffffffffffff161480156118a657507f000000000000000000000000000000000000000000000000000000000000000046145b156118d3577f000000000000000000000000000000000000000000000000000000000000000090506118de565b6118db6120c8565b90505b90565b60006040517f190100000000000000000000000000000000000000000000000000000000000081528360028201528260228201526042812091505092915050565b600080600060418451036119675760008060006020870151925060408701519150606087015160001a90506119598882858561215e565b955095509550505050611977565b60006002855160001b9250925092505b9250925092565b60006003811115611992576119916130e4565b5b8260038111156119a5576119a46130e4565b5b0315611ade57600160038111156119bf576119be6130e4565b5b8260038111156119d2576119d16130e4565b5b03611a09576040517ff645eedf00000000000000000000000000000000000000000000000000000000815260040160405180910390fd5b60026003811115611a1d57611a1c6130e4565b5b826003811115611a3057611a2f6130e4565b5b03611a75578060001c6040517ffce698f7000000000000000000000000000000000000000000000000000000008152600401611a6c919061261e565b60405180910390fd5b600380811115611a8857611a876130e4565b5b826003811115611a9b57611a9a6130e4565b5b03611add57806040517fd78bce0c000000000000000000000000000000000000000000000000000000008152600401611ad49190612772565b60405180910390fd5b5b5050565b6000808214159050919050565b6060608073ffffffffffffffffffffffffffffffffffffffff1663a1848ff385611b1886611e12565b85604051602001611b299190613134565b6040516020818303038152906040526040518463ffffffff1660e01b8152600401611b569392919061314f565b600060405180830381865afa158015611b73573d6000803e3d6000fd5b505050506040513d6000823e3d601f19601f82011682018060405250810190611b9c9190613204565b90509392505050565b60006060608073ffffffffffffffffffffffffffffffffffffffff166319e1c5c4611bcf86611e12565b856040518363ffffffff1660e01b8152600401611bed92919061324d565b600060405180830381865afa158015611c0a573d6000803e3d6000fd5b505050506040513d6000823e3d601f19601f82011682018060405250810190611c339190613204565b9050611c3e81612252565b91505092915050565b6000611c5283611ae2565b611c6357611c6060006111ad565b92505b611c6c82611ae2565b611c7d57611c7a60006111ad565b91505b600083905060008390506000611cb260028484608073ffffffffffffffffffffffffffffffffffffffff1663650de1cf612260565b905080935050505092915050565b6000808214159050919050565b6000611cda826000611ba5565b9050919050565b60006060608073ffffffffffffffffffffffffffffffffffffffff1663c2d9695287611d0c88611e12565b611d1588611e12565b611d1e88611e12565b6040518563ffffffff1660e01b8152600401611d3d949392919061327d565b600060405180830381865afa158015611d5a573d6000803e3d6000fd5b505050506040513d6000823e3d601f19601f82011682018060405250810190611d839190613204565b9050611d8e81612252565b915050949350505050565b6000611da483611ae2565b611db557611db260006111ad565b92505b611dbe82611ae2565b611dcf57611dcc60006111ad565b91505b600083905060008390506000611e0460028484608073ffffffffffffffffffffffffffffffffffffffff1663cc2cbeff612260565b905080935050505092915050565b6060602067ffffffffffffffff811115611e2f57611e2e612904565b5b6040519080825280601f01601f191660200182016040528015611e615781602001600182028036833780820191505090505b509050816020820152919050565b6000819050919050565b606060ff60001b8314611e9657611e8f836122f4565b9050611f23565b818054611ea290612f7f565b80601f0160208091040260200160405190810160405280929190818152602001828054611ece90612f7f565b8015611f1b5780601f10611ef057610100808354040283529160200191611f1b565b820191906000526020600020905b815481529060010190602001808311611efe57829003601f168201915b505050505090505b92915050565b6000611f3483611ae2565b611f4557611f4260006111ad565b92505b611f4e82611ae2565b611f5f57611f5c60006111ad565b91505b600083905060008390506000611f9460028484608073ffffffffffffffffffffffffffffffffffffffff16635211c679612260565b905080935050505092915050565b6000611fae8383612368565b905092915050565b6000611fc183611ae2565b611fd257611fcf60006111ad565b92505b611fdb82611ae2565b611fec57611fe960006111ad565b91505b60008390506000839050600061202060028484608073ffffffffffffffffffffffffffffffffffffffff16622df619612260565b905080935050505092915050565b60006060608073ffffffffffffffffffffffffffffffffffffffff16635fa55ca784866040518363ffffffff1660e01b815260040161206e929190613057565b600060405180830381865afa15801561208b573d6000803e3d6000fd5b505050506040513d6000823e3d601f19601f820116820180604052508101906120b49190613204565b90506120bf81612252565b91505092915050565b60007f8b73c3c69bb8fe3d512ecc4cf759cc79239f7b179b0ffacaa9a75d522b39400f7f00000000000000000000000000000000000000000000000000000000000000007f000000000000000000000000000000000000000000000000000000000000000046306040516020016121439594939291906132d7565b60405160208183030381529060405280519060200120905090565b60008060007f7fffffffffffffffffffffffffffffff5d576e7357a4501ddfe92f46681b20a08460001c111561219e576000600385925092509250612248565b6000600188888888604051600081526020016040526040516121c3949392919061332a565b6020604051602081039080840390855afa1580156121e5573d6000803e3d6000fd5b505050602060405103519050600073ffffffffffffffffffffffffffffffffffffffff168173ffffffffffffffffffffffffffffffffffffffff160361223957600060016000801b93509350935050612248565b8060008060001b935093509350505b9450945094915050565b600060208201519050919050565b6000606083838861227089611e12565b61227989611e12565b6040518463ffffffff1660e01b81526004016122979392919061314f565b600060405180830381865afa1580156122b4573d6000803e3d6000fd5b505050506040513d6000823e3d601f19601f820116820180604052508101906122dd9190613204565b90506122e8816123e1565b91505095945050505050565b60606000612301836123ef565b90506000602067ffffffffffffffff8111156123205761231f612904565b5b6040519080825280601f01601f1916602001820160405280156123525781602001600182028036833780820191505090505b5090508181528360208201528092505050919050565b600061237383611ae2565b6123845761238160006111ad565b92505b61238d82611ae2565b61239e5761239b60006111ad565b91505b6000839050600083905060006123d360028484608073ffffffffffffffffffffffffffffffffffffffff1663eb274b77612260565b905080935050505092915050565b600060208201519050919050565b60008060ff8360001c169050601f811115612436576040517fb3512b0c00000000000000000000000000000000000000000000000000000000815260040160405180910390fd5b80915050919050565b600081519050919050565b600082825260208201905092915050565b60005b8381101561247957808201518184015260208101905061245e565b60008484015250505050565b6000601f19601f8301169050919050565b60006124a18261243f565b6124ab818561244a565b93506124bb81856020860161245b565b6124c481612485565b840191505092915050565b600060208201905081810360008301526124e98184612496565b905092915050565b6000604051905090565b600080fd5b600080fd5b600073ffffffffffffffffffffffffffffffffffffffff82169050919050565b600061253082612505565b9050919050565b61254081612525565b811461254b57600080fd5b50565b60008135905061255d81612537565b92915050565b6000819050919050565b61257681612563565b811461258157600080fd5b50565b6000813590506125938161256d565b92915050565b600080604083850312156125b0576125af6124fb565b5b60006125be8582860161254e565b92505060206125cf85828601612584565b9150509250929050565b60008115159050919050565b6125ee816125d9565b82525050565b600060208201905061260960008301846125e5565b92915050565b61261881612563565b82525050565b6000602082019050612633600083018461260f565b92915050565b600080600060608486031215612652576126516124fb565b5b60006126608682870161254e565b93505060206126718682870161254e565b925050604061268286828701612584565b9150509250925092565b600080604083850312156126a3576126a26124fb565b5b60006126b18582860161254e565b92505060206126c28582860161254e565b9150509250929050565b6000819050919050565b60006126f16126ec6126e784612563565b6126cc565b612563565b9050919050565b612701816126d6565b82525050565b600060208201905061271c60008301846126f8565b92915050565b600060ff82169050919050565b61273881612722565b82525050565b6000602082019050612753600083018461272f565b92915050565b6000819050919050565b61276c81612759565b82525050565b60006020820190506127876000830184612763565b92915050565b600080fd5b6000602082840312156127a8576127a761278d565b5b81905092915050565b600080604083850312156127c8576127c76124fb565b5b60006127d68582860161254e565b925050602083013567ffffffffffffffff8111156127f7576127f6612500565b5b61280385828601612792565b9150509250929050565b6000604082840312156128235761282261278d565b5b81905092915050565b60008060408385031215612843576128426124fb565b5b60006128518582860161254e565b925050602083013567ffffffffffffffff81111561287257612871612500565b5b61287e8582860161280d565b9150509250929050565b600081519050919050565b600082825260208201905092915050565b60006128af82612888565b6128b98185612893565b93506128c981856020860161245b565b6128d281612485565b840191505092915050565b600060208201905081810360008301526128f781846128a4565b905092915050565b600080fd5b7f4e487b7100000000000000000000000000000000000000000000000000000000600052604160045260246000fd5b61293c82612485565b810181811067ffffffffffffffff8211171561295b5761295a612904565b5b80604052505050565b600061296e6124f1565b905061297a8282612933565b919050565b600080fd5b61298d81612759565b811461299857600080fd5b50565b6000813590506129aa81612984565b92915050565b600080fd5b600080fd5b600067ffffffffffffffff8211156129d5576129d4612904565b5b6129de82612485565b9050602081019050919050565b82818337600083830152505050565b6000612a0d612a08846129ba565b612964565b905082815260208101848484011115612a2957612a286129b5565b5b612a348482856129eb565b509392505050565b600082601f830112612a5157612a506129b0565b5b8135612a618482602086016129fa565b91505092915050565b600060408284031215612a8057612a7f6128ff565b5b612a8a6040612964565b90506000612a9a8482850161299b565b600083015250602082013567ffffffffffffffff811115612abe57612abd61297f565b5b612aca84828501612a3c565b60208301525092915050565b60008060408385031215612aed57612aec6124fb565b5b6000612afb8582860161254e565b925050602083013567ffffffffffffffff811115612b1c57612b1b612500565b5b612b2885828601612a6a565b9150509250929050565b600063ffffffff82169050919050565b612b4b81612b32565b8114612b5657600080fd5b50565b600081359050612b6881612b42565b92915050565b600060208284031215612b8457612b836124fb565b5b6000612b9284828501612b59565b91505092915050565b600060208284031215612bb157612bb06124fb565b5b6000612bbf8482850161254e565b91505092915050565b60007fff0000000000000000000000000000000000000000000000000000000000000082169050919050565b612bfd81612bc8565b82525050565b612c0c81612525565b82525050565b600081519050919050565b600082825260208201905092915050565b6000819050602082019050919050565b612c4781612563565b82525050565b6000612c598383612c3e565b60208301905092915050565b6000602082019050919050565b6000612c7d82612c12565b612c878185612c1d565b9350612c9283612c2e565b8060005b83811015612cc3578151612caa8882612c4d565b9750612cb583612c65565b925050600181019050612c96565b5085935050505092915050565b600060e082019050612ce5600083018a612bf4565b8181036020830152612cf78189612496565b90508181036040830152612d0b8188612496565b9050612d1a606083018761260f565b612d276080830186612c03565b612d3460a0830185612763565b81810360c0830152612d468184612c72565b905098975050505050505050565b600080600060608486031215612d6d57612d6c6124fb565b5b6000612d7b8682870161254e565b9350506020612d8c8682870161254e565b925050604084013567ffffffffffffffff811115612dad57612dac612500565b5b612db986828701612792565b9150509250925092565b612dcc81612563565b8114612dd757600080fd5b50565b600081359050612de981612dc3565b92915050565b600080600060608486031215612e0857612e076124fb565b5b6000612e168682870161254e565b9350506020612e278682870161254e565b9250506040612e3886828701612dda565b9150509250925092565b60008060408385031215612e5957612e586124fb565b5b6000612e678582860161254e565b9250506020612e7885828601612dda565b9150509250929050565b612e8b81612722565b8114612e9657600080fd5b50565b600081359050612ea881612e82565b92915050565b600080600080600080600060e0888a031215612ecd57612ecc6124fb565b5b6000612edb8a828b0161254e565b9750506020612eec8a828b0161254e565b9650506040612efd8a828b01612584565b9550506060612f0e8a828b01612584565b9450506080612f1f8a828b01612e99565b93505060a0612f308a828b0161299b565b92505060c0612f418a828b0161299b565b91505092959891949750929550565b7f4e487b7100000000000000000000000000000000000000000000000000000000600052602260045260246000fd5b60006002820490506001821680612f9757607f821691505b602082108103612faa57612fa9612f50565b5b50919050565b600060208284031215612fc657612fc56128ff565b5b612fd06020612964565b9050600082013567ffffffffffffffff811115612ff057612fef61297f565b5b612ffc84828501612a3c565b60008301525092915050565b60006130143683612fb0565b9050919050565b60006130273683612a6a565b9050919050565b60006040820190506130436000830185612763565b6130506020830184612763565b9392505050565b600060408201905061306c600083018561272f565b818103602083015261307e81846128a4565b90509392505050565b6000815190506130968161256d565b92915050565b6000602082840312156130b2576130b16124fb565b5b60006130c084828501613087565b91505092915050565b60006020820190506130de6000830184612c03565b92915050565b7f4e487b7100000000000000000000000000000000000000000000000000000000600052602160045260246000fd5b6000819050919050565b61312e61312982612759565b613113565b82525050565b6000613140828461311d565b60208201915081905092915050565b6000606082019050613164600083018661272f565b818103602083015261317681856128a4565b9050818103604083015261318a81846128a4565b9050949350505050565b60006131a76131a2846129ba565b612964565b9050828152602081018484840111156131c3576131c26129b5565b5b6131ce84828561245b565b509392505050565b600082601f8301126131eb576131ea6129b0565b5b81516131fb848260208601613194565b91505092915050565b60006020828403121561321a576132196124fb565b5b600082015167ffffffffffffffff81111561323857613237612500565b5b613244848285016131d6565b91505092915050565b6000604082019050818103600083015261326781856128a4565b9050613276602083018461272f565b9392505050565b6000608082019050613292600083018761272f565b81810360208301526132a481866128a4565b905081810360408301526132b881856128a4565b905081810360608301526132cc81846128a4565b905095945050505050565b600060a0820190506132ec6000830188612763565b6132f96020830187612763565b6133066040830186612763565b613313606083018561260f565b6133206080830184612c03565b9695505050505050565b600060808201905061333f6000830187612763565b61334c602083018661272f565b6133596040830185612763565b6133666060830184612763565b9594505050505056fea26469706673582212207a2d38b4faf237ad750e61becef6f4655e67bbcc838870cd5b812d7ca8bb0a8c64736f6c63430008180033",
  "devdoc": {
    "errors": {
      "AllowanceOverflow()": [
        {
          "details": "The allowance has overflowed."
        }
      ],
      "AllowanceUnderflow()": [
        {
          "details": "The allowance has underflowed."
        }
      ],
      "ECDSAInvalidSignature()": [
        {
          "details": "The signature derives the `address(0)`."
        }
      ],
      "ECDSAInvalidSignatureLength(uint256)": [
        {
          "details": "The signature has an invalid length."
        }
      ],
      "ECDSAInvalidSignatureS(bytes32)": [
        {
          "details": "The signature has an S value that is in the upper half order."
        }
      ],
      "InsufficientAllowance()": [
        {
          "details": "Insufficient allowance."
        }
      ],
      "InsufficientBalance()": [
        {
          "details": "Insufficient balance."
        }
      ],
      "InvalidPermit()": [
        {
          "details": "The permit is invalid."
        }
      ],
      "PermitExpired()": [
        {
          "details": "The permit has expired."
        }
      ],
      "TotalSupplyOverflow()": [
        {
          "details": "The total supply has overflowed."
        }
      ]
    },
    "events": {
      "Approval(address,address,uint256)": {
        "details": "Emitted when `amount` tokens is approved by `owner` to be used by `spender`."
      },
      "ApprovalEncrypted(address,address)": {
        "details": "Emitted when the allowance of a `spender` for an `owner` is set by a call to {approveEncrypted}. `value` is the new allowance."
      },
      "EIP712DomainChanged()": {
        "details": "MAY be emitted to signal that the domain could have changed."
      },
      "Transfer(address,address,uint256)": {
        "details": "Emitted when `amount` tokens is transferred from `from` to `to`."
      },
      "TransferEncrypted(address,address)": {
        "details": "Emitted when `value` tokens are moved from one account (`from`) to another (`to`). Note that `value` may be zero."
      }
    },
    "kind": "dev",
    "methods": {
      "DOMAIN_SEPARATOR()": {
        "details": "Returns the EIP-712 domain separator for the EIP-2612 permit."
      },
      "allowance(address,address)": {
        "details": "Returns the amount of tokens that `spender` can spend on behalf of `owner`."
      },
      "allowanceEncrypted(address,(bytes32,bytes))": {
        "details": "Returns the remaining number of tokens that `spender` will be allowed to spend on behalf of `owner` through {transferFrom}. This is zero by default. This value changes when {approve} or {transferFrom} are called."
      },
      "approve(address,uint256)": {
        "details": "Sets `amount` as the allowance of `spender` over the caller's tokens. Emits a {Approval} event."
      },
      "approveEncrypted(address,(bytes))": {
        "details": "Sets a `value` amount of tokens as the allowance of `spender` over the caller's tokens. Returns a boolean value indicating whether the operation succeeded. IMPORTANT: Beware that changing an allowance with this method brings the risk that someone may use both the old and the new allowance by unfortunate transaction ordering. One possible solution to mitigate this race condition is to first reduce the spender's allowance to 0 and set the desired value afterwards: https://github.com/ethereum/EIPs/issues/20#issuecomment-263524729 Emits an {ApprovalEncrypted} event."
      },
      "balanceOf(address)": {
        "details": "Returns the amount of tokens owned by `owner`."
      },
      "balanceOfEncrypted(address,(bytes32,bytes))": {
        "details": "Returns the value of tokens owned by `account`, sealed and encrypted for the caller."
      },
      "decimals()": {
        "details": "Returns the decimals places of the token."
      },
      "eip712Domain()": {
        "details": "See {IERC-5267}."
      },
      "name()": {
        "details": "Returns the name of the token."
      },
      "nonces(address)": {
        "details": "Returns the current nonce for `owner`. This value is used to compute the signature for EIP-2612 permit."
      },
      "permit(address,address,uint256,uint256,uint8,bytes32,bytes32)": {
        "details": "Sets `value` as the allowance of `spender` over the tokens of `owner`, authorized by a signed approval by `owner`. Emits a {Approval} event."
      },
      "symbol()": {
        "details": "Returns the symbol of the token."
      },
      "totalSupply()": {
        "details": "Returns the amount of tokens in existence."
      },
      "transfer(address,uint256)": {
        "details": "Transfer `amount` tokens from the caller to `to`. Requirements: - `from` must at least have `amount`. Emits a {Transfer} event."
      },
      "transferFrom(address,address,uint256)": {
        "details": "Transfers `amount` tokens from `from` to `to`. Note: Does not update the allowance if it is the maximum uint256 value. Requirements: - `from` must at least have `amount`. - The caller must have at least `amount` of allowance to transfer the tokens of `from`. Emits a {Transfer} event."
      },
      "transferFromEncrypted(address,address,(bytes))": {
        "details": "Moves a `value` amount of tokens from `from` to `to` using the allowance mechanism. `value` is then deducted from the caller's allowance. Returns a boolean value indicating whether the operation succeeded. Emits a {TransferEncrypted} event."
      }
    },
    "version": 1
  },
  "userdoc": {
    "errors": {
      "SignerNotMessageSender()": [
        {
          "notice": "Emitted when the signer is not the message sender"
        }
      ],
      "SignerNotOwner()": [
        {
          "notice": "Emitted when the signer is not the specified owner"
        }
      ]
    },
    "kind": "user",
    "methods": {},
    "version": 1
  },
  "storageLayout": {
    "storage": [
      {
        "astId": 9854,
        "contract": "contracts/libraries/FHERC20.sol:FHERC20",
        "label": "_nameFallback",
        "offset": 0,
        "slot": "0",
        "type": "t_string_storage"
      },
      {
        "astId": 9856,
        "contract": "contracts/libraries/FHERC20.sol:FHERC20",
        "label": "_versionFallback",
        "offset": 0,
        "slot": "1",
        "type": "t_string_storage"
      },
      {
        "astId": 13035,
        "contract": "contracts/libraries/FHERC20.sol:FHERC20",
        "label": "_encBalances",
        "offset": 0,
        "slot": "2",
        "type": "t_mapping(t_address,t_userDefinedValueType(euint32)12)"
      },
      {
        "astId": 13042,
        "contract": "contracts/libraries/FHERC20.sol:FHERC20",
        "label": "_allowed",
        "offset": 0,
        "slot": "3",
        "type": "t_mapping(t_address,t_mapping(t_address,t_userDefinedValueType(euint32)12))"
      },
      {
        "astId": 13049,
        "contract": "contracts/libraries/FHERC20.sol:FHERC20",
        "label": "totalEncryptedSupply",
        "offset": 0,
        "slot": "4",
        "type": "t_userDefinedValueType(euint32)12"
      },
      {
        "astId": 13051,
        "contract": "contracts/libraries/FHERC20.sol:FHERC20",
        "label": "_name",
        "offset": 0,
        "slot": "5",
        "type": "t_string_storage"
      },
      {
        "astId": 13053,
        "contract": "contracts/libraries/FHERC20.sol:FHERC20",
        "label": "_symbol",
        "offset": 0,
        "slot": "6",
        "type": "t_string_storage"
      }
    ],
    "types": {
      "t_address": {
        "encoding": "inplace",
        "label": "address",
        "numberOfBytes": "20"
      },
      "t_mapping(t_address,t_mapping(t_address,t_userDefinedValueType(euint32)12))": {
        "encoding": "mapping",
        "key": "t_address",
        "label": "mapping(address => mapping(address => euint32))",
        "numberOfBytes": "32",
        "value": "t_mapping(t_address,t_userDefinedValueType(euint32)12)"
      },
      "t_mapping(t_address,t_userDefinedValueType(euint32)12)": {
        "encoding": "mapping",
        "key": "t_address",
        "label": "mapping(address => euint32)",
        "numberOfBytes": "32",
        "value": "t_userDefinedValueType(euint32)12"
      },
      "t_string_storage": {
        "encoding": "bytes",
        "label": "string",
        "numberOfBytes": "32"
      },
      "t_userDefinedValueType(euint32)12": {
        "encoding": "inplace",
        "label": "euint32",
        "numberOfBytes": "32"
      }
    }
  }
}