{
  "address": "0x100371Fe4B99492a6AEE453FFa46AB8074aae8e4",
  "abi": [
    {
      "inputs": [
        {
          "internalType": "string",
          "name": "name_",
          "type": "string"
        },
        {
          "internalType": "string",
          "name": "symbol_",
          "type": "string"
        }
      ],
      "stateMutability": "nonpayable",
      "type": "constructor"
    },
    {
      "inputs": [],
      "name": "AllowanceOverflow",
      "type": "error"
    },
    {
      "inputs": [],
      "name": "AllowanceUnderflow",
      "type": "error"
    },
    {
      "inputs": [],
      "name": "ECDSAInvalidSignature",
      "type": "error"
    },
    {
      "inputs": [
        {
          "internalType": "uint256",
          "name": "length",
          "type": "uint256"
        }
      ],
      "name": "ECDSAInvalidSignatureLength",
      "type": "error"
    },
    {
      "inputs": [
        {
          "internalType": "bytes32",
          "name": "s",
          "type": "bytes32"
        }
      ],
      "name": "ECDSAInvalidSignatureS",
      "type": "error"
    },
    {
      "inputs": [
        {
          "internalType": "address",
          "name": "",
          "type": "address"
        }
      ],
      "name": "ERC20InvalidApprover",
      "type": "error"
    },
    {
      "inputs": [
        {
          "internalType": "address",
          "name": "",
          "type": "address"
        }
      ],
      "name": "ERC20InvalidSpender",
      "type": "error"
    },
    {
      "inputs": [],
      "name": "ErrorInsufficientFunds",
      "type": "error"
    },
    {
      "inputs": [],
      "name": "InsufficientAllowance",
      "type": "error"
    },
    {
      "inputs": [],
      "name": "InsufficientBalance",
      "type": "error"
    },
    {
      "inputs": [],
      "name": "InvalidPermit",
      "type": "error"
    },
    {
      "inputs": [],
      "name": "InvalidShortString",
      "type": "error"
    },
    {
      "inputs": [],
      "name": "PermitExpired",
      "type": "error"
    },
    {
      "inputs": [],
      "name": "SignerNotMessageSender",
      "type": "error"
    },
    {
      "inputs": [],
      "name": "SignerNotOwner",
      "type": "error"
    },
    {
      "inputs": [
        {
          "internalType": "string",
          "name": "str",
          "type": "string"
        }
      ],
      "name": "StringTooLong",
      "type": "error"
    },
    {
      "inputs": [],
      "name": "TotalSupplyOverflow",
      "type": "error"
    },
    {
      "anonymous": false,
      "inputs": [
        {
          "indexed": true,
          "internalType": "address",
          "name": "owner",
          "type": "address"
        },
        {
          "indexed": true,
          "internalType": "address",
          "name": "spender",
          "type": "address"
        },
        {
          "indexed": false,
          "internalType": "uint256",
          "name": "amount",
          "type": "uint256"
        }
      ],
      "name": "Approval",
      "type": "event"
    },
    {
      "anonymous": false,
      "inputs": [
        {
          "indexed": true,
          "internalType": "address",
          "name": "owner",
          "type": "address"
        },
        {
          "indexed": true,
          "internalType": "address",
          "name": "spender",
          "type": "address"
        }
      ],
      "name": "ApprovalEncrypted",
      "type": "event"
    },
    {
      "anonymous": false,
      "inputs": [],
      "name": "EIP712DomainChanged",
      "type": "event"
    },
    {
      "anonymous": false,
      "inputs": [
        {
          "indexed": true,
          "internalType": "address",
          "name": "from",
          "type": "address"
        },
        {
          "indexed": true,
          "internalType": "address",
          "name": "to",
          "type": "address"
        },
        {
          "indexed": false,
          "internalType": "uint256",
          "name": "amount",
          "type": "uint256"
        }
      ],
      "name": "Transfer",
      "type": "event"
    },
    {
      "anonymous": false,
      "inputs": [
        {
          "indexed": true,
          "internalType": "address",
          "name": "from",
          "type": "address"
        },
        {
          "indexed": true,
          "internalType": "address",
          "name": "to",
          "type": "address"
        }
      ],
      "name": "TransferEncrypted",
      "type": "event"
    },
    {
      "inputs": [],
      "name": "DOMAIN_SEPARATOR",
      "outputs": [
        {
          "internalType": "bytes32",
          "name": "result",
          "type": "bytes32"
        }
      ],
      "stateMutability": "view",
      "type": "function"
    },
    {
      "inputs": [
        {
          "internalType": "address",
          "name": "owner",
          "type": "address"
        },
        {
          "internalType": "address",
          "name": "spender",
          "type": "address"
        }
      ],
      "name": "_allowanceEncrypted",
      "outputs": [
        {
          "internalType": "euint32",
          "name": "",
          "type": "uint256"
        }
      ],
      "stateMutability": "view",
      "type": "function"
    },
    {
      "inputs": [
        {
          "internalType": "address",
          "name": "owner",
          "type": "address"
        },
        {
          "internalType": "address",
          "name": "spender",
          "type": "address"
        }
      ],
      "name": "allowance",
      "outputs": [
        {
          "internalType": "uint256",
          "name": "result",
          "type": "uint256"
        }
      ],
      "stateMutability": "view",
      "type": "function"
    },
    {
      "inputs": [
        {
          "internalType": "address",
          "name": "spender",
          "type": "address"
        },
        {
          "components": [
            {
              "internalType": "bytes32",
              "name": "publicKey",
              "type": "bytes32"
            },
            {
              "internalType": "bytes",
              "name": "signature",
              "type": "bytes"
            }
          ],
          "internalType": "struct Permission",
          "name": "permission",
          "type": "tuple"
        }
      ],
      "name": "allowanceEncrypted",
      "outputs": [
        {
          "internalType": "bytes",
          "name": "",
          "type": "bytes"
        }
      ],
      "stateMutability": "view",
      "type": "function"
    },
    {
      "inputs": [
        {
          "internalType": "address",
          "name": "spender",
          "type": "address"
        },
        {
          "internalType": "uint256",
          "name": "amount",
          "type": "uint256"
        }
      ],
      "name": "approve",
      "outputs": [
        {
          "internalType": "bool",
          "name": "",
          "type": "bool"
        }
      ],
      "stateMutability": "nonpayable",
      "type": "function"
    },
    {
      "inputs": [
        {
          "internalType": "address",
          "name": "spender",
          "type": "address"
        },
        {
          "components": [
            {
              "internalType": "bytes",
              "name": "data",
              "type": "bytes"
            }
          ],
          "internalType": "struct inEuint32",
          "name": "value",
          "type": "tuple"
        }
      ],
      "name": "approveEncrypted",
      "outputs": [
        {
          "internalType": "bool",
          "name": "",
          "type": "bool"
        }
      ],
      "stateMutability": "nonpayable",
      "type": "function"
    },
    {
      "inputs": [
        {
          "internalType": "address",
          "name": "owner",
          "type": "address"
        }
      ],
      "name": "balanceOf",
      "outputs": [
        {
          "internalType": "uint256",
          "name": "result",
          "type": "uint256"
        }
      ],
      "stateMutability": "view",
      "type": "function"
    },
    {
      "inputs": [
        {
          "internalType": "address",
          "name": "account",
          "type": "address"
        },
        {
          "components": [
            {
              "internalType": "bytes32",
              "name": "publicKey",
              "type": "bytes32"
            },
            {
              "internalType": "bytes",
              "name": "signature",
              "type": "bytes"
            }
          ],
          "internalType": "struct Permission",
          "name": "auth",
          "type": "tuple"
        }
      ],
      "name": "balanceOfEncrypted",
      "outputs": [
        {
          "internalType": "bytes",
          "name": "",
          "type": "bytes"
        }
      ],
      "stateMutability": "view",
      "type": "function"
    },
    {
      "inputs": [],
      "name": "decimals",
      "outputs": [
        {
          "internalType": "uint8",
          "name": "",
          "type": "uint8"
        }
      ],
      "stateMutability": "pure",
      "type": "function"
    },
    {
      "inputs": [],
      "name": "eip712Domain",
      "outputs": [
        {
          "internalType": "bytes1",
          "name": "fields",
          "type": "bytes1"
        },
        {
          "internalType": "string",
          "name": "name",
          "type": "string"
        },
        {
          "internalType": "string",
          "name": "version",
          "type": "string"
        },
        {
          "internalType": "uint256",
          "name": "chainId",
          "type": "uint256"
        },
        {
          "internalType": "address",
          "name": "verifyingContract",
          "type": "address"
        },
        {
          "internalType": "bytes32",
          "name": "salt",
          "type": "bytes32"
        },
        {
          "internalType": "uint256[]",
          "name": "extensions",
          "type": "uint256[]"
        }
      ],
      "stateMutability": "view",
      "type": "function"
    },
    {
      "inputs": [],
      "name": "mintEncrypted",
      "outputs": [],
      "stateMutability": "nonpayable",
      "type": "function"
    },
    {
      "inputs": [],
      "name": "name",
      "outputs": [
        {
          "internalType": "string",
          "name": "",
          "type": "string"
        }
      ],
      "stateMutability": "view",
      "type": "function"
    },
    {
      "inputs": [
        {
          "internalType": "address",
          "name": "owner",
          "type": "address"
        }
      ],
      "name": "nonces",
      "outputs": [
        {
          "internalType": "uint256",
          "name": "result",
          "type": "uint256"
        }
      ],
      "stateMutability": "view",
      "type": "function"
    },
    {
      "inputs": [
        {
          "internalType": "address",
          "name": "owner",
          "type": "address"
        },
        {
          "internalType": "address",
          "name": "spender",
          "type": "address"
        },
        {
          "internalType": "uint256",
          "name": "value",
          "type": "uint256"
        },
        {
          "internalType": "uint256",
          "name": "deadline",
          "type": "uint256"
        },
        {
          "internalType": "uint8",
          "name": "v",
          "type": "uint8"
        },
        {
          "internalType": "bytes32",
          "name": "r",
          "type": "bytes32"
        },
        {
          "internalType": "bytes32",
          "name": "s",
          "type": "bytes32"
        }
      ],
      "name": "permit",
      "outputs": [],
      "stateMutability": "nonpayable",
      "type": "function"
    },
    {
      "inputs": [],
      "name": "symbol",
      "outputs": [
        {
          "internalType": "string",
          "name": "",
          "type": "string"
        }
      ],
      "stateMutability": "view",
      "type": "function"
    },
    {
      "inputs": [],
      "name": "totalSupply",
      "outputs": [
        {
          "internalType": "uint256",
          "name": "result",
          "type": "uint256"
        }
      ],
      "stateMutability": "view",
      "type": "function"
    },
    {
      "inputs": [
        {
          "internalType": "address",
          "name": "to",
          "type": "address"
        },
        {
          "internalType": "uint256",
          "name": "amount",
          "type": "uint256"
        }
      ],
      "name": "transfer",
      "outputs": [
        {
          "internalType": "bool",
          "name": "",
          "type": "bool"
        }
      ],
      "stateMutability": "nonpayable",
      "type": "function"
    },
    {
      "inputs": [
        {
          "internalType": "address",
          "name": "to",
          "type": "address"
        },
        {
          "components": [
            {
              "internalType": "bytes",
              "name": "data",
              "type": "bytes"
            }
          ],
          "internalType": "struct inEuint32",
          "name": "encryptedAmount",
          "type": "tuple"
        }
      ],
      "name": "transferEncrypted",
      "outputs": [
        {
          "internalType": "euint32",
          "name": "",
          "type": "uint256"
        }
      ],
      "stateMutability": "nonpayable",
      "type": "function"
    },
    {
      "inputs": [
        {
          "internalType": "address",
          "name": "to",
          "type": "address"
        },
        {
          "internalType": "euint32",
          "name": "amount",
          "type": "uint256"
        }
      ],
      "name": "transferEncrypted",
      "outputs": [
        {
          "internalType": "euint32",
          "name": "",
          "type": "uint256"
        }
      ],
      "stateMutability": "nonpayable",
      "type": "function"
    },
    {
      "inputs": [
        {
          "internalType": "address",
          "name": "from",
          "type": "address"
        },
        {
          "internalType": "address",
          "name": "to",
          "type": "address"
        },
        {
          "internalType": "uint256",
          "name": "amount",
          "type": "uint256"
        }
      ],
      "name": "transferFrom",
      "outputs": [
        {
          "internalType": "bool",
          "name": "",
          "type": "bool"
        }
      ],
      "stateMutability": "nonpayable",
      "type": "function"
    },
    {
      "inputs": [
        {
          "internalType": "address",
          "name": "from",
          "type": "address"
        },
        {
          "internalType": "address",
          "name": "to",
          "type": "address"
        },
        {
          "components": [
            {
              "internalType": "bytes",
              "name": "data",
              "type": "bytes"
            }
          ],
          "internalType": "struct inEuint32",
          "name": "value",
          "type": "tuple"
        }
      ],
      "name": "transferFromEncrypted",
      "outputs": [
        {
          "internalType": "euint32",
          "name": "",
          "type": "uint256"
        }
      ],
      "stateMutability": "nonpayable",
      "type": "function"
    },
    {
      "inputs": [
        {
          "internalType": "address",
          "name": "from",
          "type": "address"
        },
        {
          "internalType": "address",
          "name": "to",
          "type": "address"
        },
        {
          "internalType": "euint32",
          "name": "value",
          "type": "uint256"
        }
      ],
      "name": "transferFromEncrypted",
      "outputs": [
        {
          "internalType": "euint32",
          "name": "",
          "type": "uint256"
        }
      ],
      "stateMutability": "nonpayable",
      "type": "function"
    },
    {
      "inputs": [
        {
          "internalType": "uint32",
          "name": "amount",
          "type": "uint32"
        }
      ],
      "name": "unwrap",
      "outputs": [],
      "stateMutability": "nonpayable",
      "type": "function"
    },
    {
      "inputs": [
        {
          "internalType": "uint32",
          "name": "amount",
          "type": "uint32"
        }
      ],
      "name": "wrap",
      "outputs": [],
      "stateMutability": "nonpayable",
      "type": "function"
    }
  ],
  "transactionHash": "0x5af4e018d82332b0f8886714efc7a08e0257d1df77e72608e7ccdf32a43d390e",
  "args": [
    "FUGAZI token",
    "FGZ"
  ],
  "numDeployments": 1,
  "solcInputHash": "22960e9b31aa6126551f4e892abf49c4",
  "bytecode": "0x6101606040526200001760006200026760201b60201c565b6004556200002c600c6200026760201b60201c565b6007553480156200003c57600080fd5b50604051620044ea380380620044ea8339818101604052810190620000629190620007f2565b81816040518060400160405280601181526020017f4668656e6978205065726d697373696f6e0000000000000000000000000000008152506040518060400160405280600381526020017f312e300000000000000000000000000000000000000000000000000000000000815250620000e66000836200028360201b90919060201c565b6101208181525050620001046001826200028360201b90919060201c565b6101408181525050818051906020012060e08181525050808051906020012061010081815250504660a0818152505062000143620002db60201b60201c565b608081815250503073ffffffffffffffffffffffffffffffffffffffff1660c08173ffffffffffffffffffffffffffffffffffffffff16815250505050816005908162000191919062000ac2565b508060069081620001a3919062000ac2565b506000620001b860086200026760201b60201c565b905062000205600260003373ffffffffffffffffffffffffffffffffffffffff1673ffffffffffffffffffffffffffffffffffffffff168152602001908152602001600020548262000338565b600260003373ffffffffffffffffffffffffffffffffffffffff1673ffffffffffffffffffffffffffffffffffffffff16815260200190815260200160002081905550620002566004548262000338565b600481905550505050505062000f83565b60006200027c8260026200035460201b60201c565b9050919050565b6000602083511015620002a957620002a1836200040b60201b60201c565b9050620002d5565b82620002bb836200047860201b60201c565b6000019081620002cc919062000ac2565b5060ff60001b90505b92915050565b60007f8b73c3c69bb8fe3d512ecc4cf759cc79239f7b179b0ffacaa9a75d522b39400f60e0516101005146306040516020016200031d95949392919062000c1a565b60405160208183030381529060405280519060200120905090565b60006200034c83836200048260201b60201c565b905092915050565b60006060608073ffffffffffffffffffffffffffffffffffffffff166319e1c5c462000386866200052460201b60201c565b856040518363ffffffff1660e01b8152600401620003a692919062000cf2565b600060405180830381865afa158015620003c4573d6000803e3d6000fd5b505050506040513d6000823e3d601f19601f82011682018060405250810190620003ef919062000dda565b905062000402816200058560201b60201c565b91505092915050565b600080829050601f815111156200045b57826040517f305a27a900000000000000000000000000000000000000000000000000000000815260040162000452919062000e7d565b60405180910390fd5b805181620004699062000ec8565b60001c1760001b915050919050565b6000819050919050565b600062000495836200059360201b60201c565b620004af57620004ac60006200026760201b60201c565b92505b620004c0826200059360201b60201c565b620004da57620004d760006200026760201b60201c565b91505b6000839050600083905060006200051660028484608073ffffffffffffffffffffffffffffffffffffffff16622df619620005a060201b60201c565b905080935050505092915050565b6060602067ffffffffffffffff8111156200054457620005436200068e565b5b6040519080825280601f01601f191660200182016040528015620005775781602001600182028036833780820191505090505b509050816020820152919050565b600060208201519050919050565b6000808214159050919050565b60006060838388620005b8896200052460201b60201c565b620005c9896200052460201b60201c565b6040518463ffffffff1660e01b8152600401620005e99392919062000f38565b600060405180830381865afa15801562000607573d6000803e3d6000fd5b505050506040513d6000823e3d601f19601f8201168201806040525081019062000632919062000dda565b905062000645816200065160201b60201c565b91505095945050505050565b600060208201519050919050565b6000604051905090565b600080fd5b600080fd5b600080fd5b600080fd5b6000601f19601f8301169050919050565b7f4e487b7100000000000000000000000000000000000000000000000000000000600052604160045260246000fd5b620006c8826200067d565b810181811067ffffffffffffffff82111715620006ea57620006e96200068e565b5b80604052505050565b6000620006ff6200065f565b90506200070d8282620006bd565b919050565b600067ffffffffffffffff82111562000730576200072f6200068e565b5b6200073b826200067d565b9050602081019050919050565b60005b83811015620007685780820151818401526020810190506200074b565b60008484015250505050565b60006200078b620007858462000712565b620006f3565b905082815260208101848484011115620007aa57620007a962000678565b5b620007b784828562000748565b509392505050565b600082601f830112620007d757620007d662000673565b5b8151620007e984826020860162000774565b91505092915050565b600080604083850312156200080c576200080b62000669565b5b600083015167ffffffffffffffff8111156200082d576200082c6200066e565b5b6200083b85828601620007bf565b925050602083015167ffffffffffffffff8111156200085f576200085e6200066e565b5b6200086d85828601620007bf565b9150509250929050565b600081519050919050565b7f4e487b7100000000000000000000000000000000000000000000000000000000600052602260045260246000fd5b60006002820490506001821680620008ca57607f821691505b602082108103620008e057620008df62000882565b5b50919050565b60008190508160005260206000209050919050565b60006020601f8301049050919050565b600082821b905092915050565b6000600883026200094a7fffffffffffffffffffffffffffffffffffffffffffffffffffffffffffffffff826200090b565b6200095686836200090b565b95508019841693508086168417925050509392505050565b6000819050919050565b6000819050919050565b6000620009a36200099d62000997846200096e565b62000978565b6200096e565b9050919050565b6000819050919050565b620009bf8362000982565b620009d7620009ce82620009aa565b84845462000918565b825550505050565b600090565b620009ee620009df565b620009fb818484620009b4565b505050565b5b8181101562000a235762000a17600082620009e4565b60018101905062000a01565b5050565b601f82111562000a725762000a3c81620008e6565b62000a4784620008fb565b8101602085101562000a57578190505b62000a6f62000a6685620008fb565b83018262000a00565b50505b505050565b600082821c905092915050565b600062000a976000198460080262000a77565b1980831691505092915050565b600062000ab2838362000a84565b9150826002028217905092915050565b62000acd8262000877565b67ffffffffffffffff81111562000ae95762000ae86200068e565b5b62000af58254620008b1565b62000b0282828562000a27565b600060209050601f83116001811462000b3a576000841562000b25578287015190505b62000b31858262000aa4565b86555062000ba1565b601f19841662000b4a86620008e6565b60005b8281101562000b745784890151825560018201915060208501945060208101905062000b4d565b8683101562000b94578489015162000b90601f89168262000a84565b8355505b6001600288020188555050505b505050505050565b6000819050919050565b62000bbe8162000ba9565b82525050565b62000bcf816200096e565b82525050565b600073ffffffffffffffffffffffffffffffffffffffff82169050919050565b600062000c028262000bd5565b9050919050565b62000c148162000bf5565b82525050565b600060a08201905062000c31600083018862000bb3565b62000c40602083018762000bb3565b62000c4f604083018662000bb3565b62000c5e606083018562000bc4565b62000c6d608083018462000c09565b9695505050505050565b600081519050919050565b600082825260208201905092915050565b600062000ca08262000c77565b62000cac818562000c82565b935062000cbe81856020860162000748565b62000cc9816200067d565b840191505092915050565b600060ff82169050919050565b62000cec8162000cd4565b82525050565b6000604082019050818103600083015262000d0e818562000c93565b905062000d1f602083018462000ce1565b9392505050565b600067ffffffffffffffff82111562000d445762000d436200068e565b5b62000d4f826200067d565b9050602081019050919050565b600062000d7362000d6d8462000d26565b620006f3565b90508281526020810184848401111562000d925762000d9162000678565b5b62000d9f84828562000748565b509392505050565b600082601f83011262000dbf5762000dbe62000673565b5b815162000dd184826020860162000d5c565b91505092915050565b60006020828403121562000df35762000df262000669565b5b600082015167ffffffffffffffff81111562000e145762000e136200066e565b5b62000e228482850162000da7565b91505092915050565b600082825260208201905092915050565b600062000e498262000877565b62000e55818562000e2b565b935062000e6781856020860162000748565b62000e72816200067d565b840191505092915050565b6000602082019050818103600083015262000e99818462000e3c565b905092915050565b6000819050602082019050919050565b600062000ebf825162000ba9565b80915050919050565b600062000ed58262000c77565b8262000ee18462000ea1565b905062000eee8162000eb1565b9250602082101562000f315762000f2c7fffffffffffffffffffffffffffffffffffffffffffffffffffffffffffffffff836020036008026200090b565b831692505b5050919050565b600060608201905062000f4f600083018662000ce1565b818103602083015262000f63818562000c93565b9050818103604083015262000f79818462000c93565b9050949350505050565b60805160a05160c05160e05161010051610120516101405161350c62000fde60003960006114df015260006114a401526000612275015260006122540152600061191c015260006119720152600061199b015261350c6000f3fe608060405234801561001057600080fd5b50600436106101585760003560e01c80637ecebe00116100c3578063af575a001161007c578063af575a001461042f578063c044eebd1461045f578063c4224c1914610469578063d505accf14610499578063d918156e146104b5578063dd62ed3e146104e557610158565b80637ecebe001461034157806384b0196e146103715780638624a3491461039557806395d89b41146103c55780639f284be7146103e3578063a9059cbb146103ff57610158565b80633644e515116101155780633644e5151461024757806339c217f7146102655780635356c4291461029557806360277204146102c55780636e0505e1146102f557806370a082311461031157610158565b806306fdde031461015d578063095ea7b31461017b57806318160ddd146101ab57806323b872dd146101c957806323db9354146101f9578063313ce56714610229575b600080fd5b610165610515565b6040516101729190612636565b60405180910390f35b61019560048036038101906101909190612700565b6105a7565b6040516101a2919061275b565b60405180910390f35b6101b36105fb565b6040516101c09190612785565b60405180910390f35b6101e360048036038101906101de91906127a0565b61060d565b6040516101f0919061275b565b60405180910390f35b610213600480360381019061020e91906127f3565b6106e2565b604051610220919061286e565b60405180910390f35b610231610769565b60405161023e91906128a5565b60405180910390f35b61024f61076e565b60405161025c91906128d9565b60405180910390f35b61027f600480360381019061027a9190612918565b610800565b60405161028c919061286e565b60405180910390f35b6102af60048036038101906102aa9190612993565b610825565b6040516102bc9190612a44565b60405180910390f35b6102df60048036038101906102da9190612c3d565b610923565b6040516102ec9190612a44565b60405180910390f35b61030f600480360381019061030a9190612cd5565b610a59565b005b61032b60048036038101906103269190612d02565b610b90565b6040516103389190612785565b60405180910390f35b61035b60048036038101906103569190612d02565b610bab565b6040516103689190612785565b60405180910390f35b610379610bc6565b60405161038c9796959493929190612e37565b60405180910390f35b6103af60048036038101906103aa9190612ebb565b610c70565b6040516103bc919061286e565b60405180910390f35b6103cd610cae565b6040516103da9190612636565b60405180910390f35b6103fd60048036038101906103f89190612cd5565b610d40565b005b61041960048036038101906104149190612700565b610e4d565b604051610426919061275b565b60405180910390f35b61044960048036038101906104449190612f56565b610edf565b604051610456919061286e565b60405180910390f35b610467610f0c565b005b610483600480360381019061047e9190612fa9565b610fd1565b604051610490919061286e565b60405180910390f35b6104b360048036038101906104ae9190613015565b610fe6565b005b6104cf60048036038101906104ca9190612918565b61118a565b6040516104dc919061275b565b60405180910390f35b6104ff60048036038101906104fa91906127f3565b6111b2565b60405161050c9190612785565b60405180910390f35b606060058054610524906130e6565b80601f0160208091040260200160405190810160405280929190818152602001828054610550906130e6565b801561059d5780601f106105725761010080835404028352916020019161059d565b820191906000526020600020905b81548152906001019060200180831161058057829003601f168201915b5050505050905090565b600082602052637f5e9f20600c5233600052816034600c205581600052602c5160601c337f8c5be1e5ebec7d5bd14f71427d1e84f3dd0314c0f7b2291e5b200ac8c7c3b92560206000a36001905092915050565b60006805345cdf77eb68f44c54905090565b600061061a8484846111d2565b8360601b33602052637f5e9f208117600c526034600c20805460018101156106585780851115610652576313be252b6000526004601cfd5b84810382555b6387a211a28317600c526020600c2080548087111561067f5763f4d678b86000526004601cfd5b8681038255876000526020600c2087815401815587602052600c5160601c8660601c7fddf252ad1be2c89b69c2b068fc378daa952ba7f163c4a11628f55a4df523b3ef602080a35050505050506106d78484846111d7565b600190509392505050565b6000600360008473ffffffffffffffffffffffffffffffffffffffff1673ffffffffffffffffffffffffffffffffffffffff16815260200190815260200160002060008373ffffffffffffffffffffffffffffffffffffffff1673ffffffffffffffffffffffffffffffffffffffff16815260200190815260200160002054905092915050565b600090565b6000806107796111dc565b90506000801b81036107975761078d610515565b8051906020012090505b6040517f8b73c3c69bb8fe3d512ecc4cf759cc79239f7b179b0ffacaa9a75d522b39400f81528160208201527fc89efdaa54c0f20c7adf612882df0950f5a951637e0307cdcb4c672f298b8bc6604082015246606082015230608082015260a081209250505090565b600061081d83610818846108139061316f565b6111e1565b610fd1565b905092915050565b60608161083190613182565b60006108887f6bdaeb2d29561f159c7ef98b16b27015fb2aeb87209c7ee656226d912f59927d836000015160405160200161086d929190613195565b604051602081830303815290604052805190602001206111f7565b9050600061089a828460200151611211565b90503373ffffffffffffffffffffffffffffffffffffffff168173ffffffffffffffffffffffffffffffffffffffff1614610901576040517f3093a27700000000000000000000000000000000000000000000000000000000815260040160405180910390fd5b61091861090e33886106e2565b866000013561123d565b935050505092915050565b60608183600061097e7f6bdaeb2d29561f159c7ef98b16b27015fb2aeb87209c7ee656226d912f59927d8460000151604051602001610963929190613195565b604051602081830303815290604052805190602001206111f7565b90506000610990828560200151611211565b90508273ffffffffffffffffffffffffffffffffffffffff168173ffffffffffffffffffffffffffffffffffffffff16146109f7576040517f51c65eae00000000000000000000000000000000000000000000000000000000815260040160405180910390fd5b610a4d8660000151600260008a73ffffffffffffffffffffffffffffffffffffffff1673ffffffffffffffffffffffffffffffffffffffff1681526020019081526020016000205461127390919063ffffffff16565b94505050505092915050565b6000610a6a8263ffffffff16611287565b90506000610ad3610ac383600260003373ffffffffffffffffffffffffffffffffffffffff1673ffffffffffffffffffffffffffffffffffffffff1681526020019081526020016000205461129b90919063ffffffff16565b83610ace6000611287565b6112af565b9050610b1e600260003373ffffffffffffffffffffffffffffffffffffffff1673ffffffffffffffffffffffffffffffffffffffff168152602001908152602001600020548261132d565b600260003373ffffffffffffffffffffffffffffffffffffffff1673ffffffffffffffffffffffffffffffffffffffff16815260200190815260200160002081905550610b6d6004548261132d565b600481905550610b8b33610b8083611341565b63ffffffff16611404565b505050565b60006387a211a2600c52816000526020600c20549050919050565b60006338377508600c52816000526020600c20549050919050565b600060608060008060006060610bda61149b565b610be26114d6565b46306000801b600067ffffffffffffffff811115610c0357610c02612a6b565b5b604051908082528060200260200182016040528015610c315781602001602082028036833780820191505090505b507f0f00000000000000000000000000000000000000000000000000000000000000959493929190965096509650965096509650965090919293949596565b600080610c8583610c809061316f565b6111e1565b90506000610c94863384611511565b9050610ca186868361154e565b5080925050509392505050565b606060068054610cbd906130e6565b80601f0160208091040260200160405190810160405280929190818152602001828054610ce9906130e6565b8015610d365780601f10610d0b57610100808354040283529160200191610d36565b820191906000526020600020905b815481529060010190602001808311610d1957829003601f168201915b5050505050905090565b8063ffffffff16610d5033610b90565b1015610d88576040517ffda7bbda00000000000000000000000000000000000000000000000000000000815260040160405180910390fd5b610d98338263ffffffff166116db565b6000610da98263ffffffff16611287565b9050610df4600260003373ffffffffffffffffffffffffffffffffffffffff1673ffffffffffffffffffffffffffffffffffffffff1681526020019081526020016000205482611772565b600260003373ffffffffffffffffffffffffffffffffffffffff1673ffffffffffffffffffffffffffffffffffffffff16815260200190815260200160002081905550610e4360045482611772565b6004819055505050565b6000610e5a3384846111d2565b6387a211a2600c52336000526020600c20805480841115610e835763f4d678b86000526004601cfd5b8381038255846000526020600c2084815401815584602052600c5160601c337fddf252ad1be2c89b69c2b068fc378daa952ba7f163c4a11628f55a4df523b3ef602080a3505050610ed53384846111d7565b6001905092915050565b6000808290506000610ef2863384611511565b9050610eff86868361154e565b5080925050509392505050565b6000610f2e610f1f60075460045461132d565b610f29600a611287565b611786565b9050610f79600260003373ffffffffffffffffffffffffffffffffffffffff1673ffffffffffffffffffffffffffffffffffffffff1681526020019081526020016000205482611772565b600260003373ffffffffffffffffffffffffffffffffffffffff1673ffffffffffffffffffffffffffffffffffffffff16815260200190815260200160002081905550610fc860045482611772565b60048190555050565b6000610fde33848461154e565b905092915050565b6000610ff06111dc565b90506000801b810361100e57611004610515565b8051906020012090505b8442111561102457631a15a3cc6000526004601cfd5b6040518860601b60601c98508760601b60601c975065383775081901600e52886000526020600c2080547f8b73c3c69bb8fe3d512ecc4cf759cc79239f7b179b0ffacaa9a75d522b39400f83528360208401527fc89efdaa54c0f20c7adf612882df0950f5a951637e0307cdcb4c672f298b8bc6604084015246606084015230608084015260a08320602e527f6e71edae12b1b97f4d1f60370fef10105fa2faae0126114a169c64845d6126c983528a60208401528960408401528860608401528060808401528760a084015260c08320604e526042602c206000528660ff1660205285604052846060526020806080600060015afa8b3d51146111305763ddafbaef6000526004601cfd5b80820183558a637f5e9f2060a01b17604052896034602c20558a8c7f8c5be1e5ebec7d5bd14f71427d1e84f3dd0314c0f7b2291e5b200ac8c7c3b925602060608801a3836040526000606052505050505050505050505050565b60006111a833846111a38561119e9061316f565b6111e1565b61179a565b6001905092915050565b600081602052637f5e9f20600c52826000526034600c2054905092915050565b505050565b505050565b600090565b60006111f08260000151611904565b9050919050565b600061120a611204611918565b836119cf565b9050919050565b6000806000806112218686611a10565b9250925092506112318282611a6c565b82935050505092915050565b606061124883611bd0565b611259576112566000611287565b92505b600083905061126a60028285611bdd565b91505092915050565b606061127f838361123d565b905092915050565b6000611294826002611c93565b9050919050565b60006112a78383611d35565b905092915050565b60006112ba84611dae565b6112cb576112c86000611dbb565b93505b6112d483611bd0565b6112e5576112e26000611287565b92505b6112ee82611bd0565b6112ff576112fc6000611287565b91505b600084905060008490506000849050600061131d6002858585611dcf565b9050809450505050509392505050565b60006113398383611e87565b905092915050565b600061134c82611bd0565b61135d5761135a6000611287565b91505b6000829050600061136d82611f00565b90506000608073ffffffffffffffffffffffffffffffffffffffff166373cc01546002846040518363ffffffff1660e01b81526004016113ae9291906131be565b602060405180830381865afa1580156113cb573d6000803e3d6000fd5b505050506040513d601f19601f820116820180604052508101906113ef9190613203565b90506113fa81611f5d565b9350505050919050565b611410600083836111d2565b6805345cdf77eb68f44c54818101818110156114345763e5cfe9576000526004601cfd5b806805345cdf77eb68f44c556387a211a2600c52836000526020600c2083815401815583602052600c5160601c60007fddf252ad1be2c89b69c2b068fc378daa952ba7f163c4a11628f55a4df523b3ef602080a3505050611497600083836111d7565b5050565b60606114d160007f0000000000000000000000000000000000000000000000000000000000000000611f6790919063ffffffff16565b905090565b606061150c60017f0000000000000000000000000000000000000000000000000000000000000000611f6790919063ffffffff16565b905090565b60008061151e85856106e2565b9050600061152c8285612017565b9050611542868661153d858561132d565b61179a565b80925050509392505050565b6000806115b66115a6600260008873ffffffffffffffffffffffffffffffffffffffff1673ffffffffffffffffffffffffffffffffffffffff168152602001908152602001600020548561209090919063ffffffff16565b846115b16000611287565b6112af565b9050611601600260008673ffffffffffffffffffffffffffffffffffffffff1673ffffffffffffffffffffffffffffffffffffffff1681526020019081526020016000205482611772565b600260008673ffffffffffffffffffffffffffffffffffffffff1673ffffffffffffffffffffffffffffffffffffffff1681526020019081526020016000208190555061168d600260008773ffffffffffffffffffffffffffffffffffffffff1673ffffffffffffffffffffffffffffffffffffffff168152602001908152602001600020548261132d565b600260008773ffffffffffffffffffffffffffffffffffffffff1673ffffffffffffffffffffffffffffffffffffffff16815260200190815260200160002081905550809150509392505050565b6116e7826000836111d2565b6387a211a2600c52816000526020600c208054808311156117105763f4d678b86000526004601cfd5b8281038255826805345cdf77eb68f44c54036805345cdf77eb68f44c558260005260008460601b60601c7fddf252ad1be2c89b69c2b068fc378daa952ba7f163c4a11628f55a4df523b3ef60206000a3505061176e826000836111d7565b5050565b600061177e83836120a4565b905092915050565b6000611792838361211c565b905092915050565b600073ffffffffffffffffffffffffffffffffffffffff168373ffffffffffffffffffffffffffffffffffffffff160361180c5760006040517fe602df050000000000000000000000000000000000000000000000000000000081526004016118039190613230565b60405180910390fd5b600073ffffffffffffffffffffffffffffffffffffffff168273ffffffffffffffffffffffffffffffffffffffff160361187e5760006040517f94280d620000000000000000000000000000000000000000000000000000000081526004016118759190613230565b60405180910390fd5b80600360008573ffffffffffffffffffffffffffffffffffffffff1673ffffffffffffffffffffffffffffffffffffffff16815260200190815260200160002060008473ffffffffffffffffffffffffffffffffffffffff1673ffffffffffffffffffffffffffffffffffffffff16815260200190815260200160002081905550505050565b6000611911826002612195565b9050919050565b60007f000000000000000000000000000000000000000000000000000000000000000073ffffffffffffffffffffffffffffffffffffffff163073ffffffffffffffffffffffffffffffffffffffff1614801561199457507f000000000000000000000000000000000000000000000000000000000000000046145b156119c1577f000000000000000000000000000000000000000000000000000000000000000090506119cc565b6119c961222f565b90505b90565b60006040517f190100000000000000000000000000000000000000000000000000000000000081528360028201528260228201526042812091505092915050565b60008060006041845103611a555760008060006020870151925060408701519150606087015160001a9050611a47888285856122c5565b955095509550505050611a65565b60006002855160001b9250925092505b9250925092565b60006003811115611a8057611a7f61324b565b5b826003811115611a9357611a9261324b565b5b0315611bcc5760016003811115611aad57611aac61324b565b5b826003811115611ac057611abf61324b565b5b03611af7576040517ff645eedf00000000000000000000000000000000000000000000000000000000815260040160405180910390fd5b60026003811115611b0b57611b0a61324b565b5b826003811115611b1e57611b1d61324b565b5b03611b63578060001c6040517ffce698f7000000000000000000000000000000000000000000000000000000008152600401611b5a9190612785565b60405180910390fd5b600380811115611b7657611b7561324b565b5b826003811115611b8957611b8861324b565b5b03611bcb57806040517fd78bce0c000000000000000000000000000000000000000000000000000000008152600401611bc291906128d9565b60405180910390fd5b5b5050565b6000808214159050919050565b6060608073ffffffffffffffffffffffffffffffffffffffff1663a1848ff385611c0686611f00565b85604051602001611c17919061329b565b6040516020818303038152906040526040518463ffffffff1660e01b8152600401611c44939291906132b6565b600060405180830381865afa158015611c61573d6000803e3d6000fd5b505050506040513d6000823e3d601f19601f82011682018060405250810190611c8a919061336b565b90509392505050565b60006060608073ffffffffffffffffffffffffffffffffffffffff166319e1c5c4611cbd86611f00565b856040518363ffffffff1660e01b8152600401611cdb9291906133b4565b600060405180830381865afa158015611cf8573d6000803e3d6000fd5b505050506040513d6000823e3d601f19601f82011682018060405250810190611d21919061336b565b9050611d2c816123b9565b91505092915050565b6000611d4083611bd0565b611d5157611d4e6000611287565b92505b611d5a82611bd0565b611d6b57611d686000611287565b91505b600083905060008390506000611da060028484608073ffffffffffffffffffffffffffffffffffffffff1663650de1cf6123c7565b905080935050505092915050565b6000808214159050919050565b6000611dc8826000611c93565b9050919050565b60006060608073ffffffffffffffffffffffffffffffffffffffff1663c2d9695287611dfa88611f00565b611e0388611f00565b611e0c88611f00565b6040518563ffffffff1660e01b8152600401611e2b94939291906133e4565b600060405180830381865afa158015611e48573d6000803e3d6000fd5b505050506040513d6000823e3d601f19601f82011682018060405250810190611e71919061336b565b9050611e7c816123b9565b915050949350505050565b6000611e9283611bd0565b611ea357611ea06000611287565b92505b611eac82611bd0565b611ebd57611eba6000611287565b91505b600083905060008390506000611ef260028484608073ffffffffffffffffffffffffffffffffffffffff1663cc2cbeff6123c7565b905080935050505092915050565b6060602067ffffffffffffffff811115611f1d57611f1c612a6b565b5b6040519080825280601f01601f191660200182016040528015611f4f5781602001600182028036833780820191505090505b509050816020820152919050565b6000819050919050565b606060ff60001b8314611f8457611f7d8361245b565b9050612011565b818054611f90906130e6565b80601f0160208091040260200160405190810160405280929190818152602001828054611fbc906130e6565b80156120095780601f10611fde57610100808354040283529160200191612009565b820191906000526020600020905b815481529060010190602001808311611fec57829003601f168201915b505050505090505b92915050565b600061202283611bd0565b612033576120306000611287565b92505b61203c82611bd0565b61204d5761204a6000611287565b91505b60008390506000839050600061208260028484608073ffffffffffffffffffffffffffffffffffffffff16635211c6796123c7565b905080935050505092915050565b600061209c83836124cf565b905092915050565b60006120af83611bd0565b6120c0576120bd6000611287565b92505b6120c982611bd0565b6120da576120d76000611287565b91505b60008390506000839050600061210e60028484608073ffffffffffffffffffffffffffffffffffffffff16622df6196123c7565b905080935050505092915050565b600061212783611bd0565b612138576121356000611287565b92505b61214182611bd0565b6121525761214f6000611287565b91505b60008390506000839050600061218760028484608073ffffffffffffffffffffffffffffffffffffffff16631f4cda2f6123c7565b905080935050505092915050565b60006060608073ffffffffffffffffffffffffffffffffffffffff16635fa55ca784866040518363ffffffff1660e01b81526004016121d59291906131be565b600060405180830381865afa1580156121f2573d6000803e3d6000fd5b505050506040513d6000823e3d601f19601f8201168201806040525081019061221b919061336b565b9050612226816123b9565b91505092915050565b60007f8b73c3c69bb8fe3d512ecc4cf759cc79239f7b179b0ffacaa9a75d522b39400f7f00000000000000000000000000000000000000000000000000000000000000007f000000000000000000000000000000000000000000000000000000000000000046306040516020016122aa95949392919061343e565b60405160208183030381529060405280519060200120905090565b60008060007f7fffffffffffffffffffffffffffffff5d576e7357a4501ddfe92f46681b20a08460001c11156123055760006003859250925092506123af565b60006001888888886040516000815260200160405260405161232a9493929190613491565b6020604051602081039080840390855afa15801561234c573d6000803e3d6000fd5b505050602060405103519050600073ffffffffffffffffffffffffffffffffffffffff168173ffffffffffffffffffffffffffffffffffffffff16036123a057600060016000801b935093509350506123af565b8060008060001b935093509350505b9450945094915050565b600060208201519050919050565b600060608383886123d789611f00565b6123e089611f00565b6040518463ffffffff1660e01b81526004016123fe939291906132b6565b600060405180830381865afa15801561241b573d6000803e3d6000fd5b505050506040513d6000823e3d601f19601f82011682018060405250810190612444919061336b565b905061244f81612548565b91505095945050505050565b6060600061246883612556565b90506000602067ffffffffffffffff81111561248757612486612a6b565b5b6040519080825280601f01601f1916602001820160405280156124b95781602001600182028036833780820191505090505b5090508181528360208201528092505050919050565b60006124da83611bd0565b6124eb576124e86000611287565b92505b6124f482611bd0565b612505576125026000611287565b91505b60008390506000839050600061253a60028484608073ffffffffffffffffffffffffffffffffffffffff1663eb274b776123c7565b905080935050505092915050565b600060208201519050919050565b60008060ff8360001c169050601f81111561259d576040517fb3512b0c00000000000000000000000000000000000000000000000000000000815260040160405180910390fd5b80915050919050565b600081519050919050565b600082825260208201905092915050565b60005b838110156125e05780820151818401526020810190506125c5565b60008484015250505050565b6000601f19601f8301169050919050565b6000612608826125a6565b61261281856125b1565b93506126228185602086016125c2565b61262b816125ec565b840191505092915050565b6000602082019050818103600083015261265081846125fd565b905092915050565b6000604051905090565b600080fd5b600080fd5b600073ffffffffffffffffffffffffffffffffffffffff82169050919050565b60006126978261266c565b9050919050565b6126a78161268c565b81146126b257600080fd5b50565b6000813590506126c48161269e565b92915050565b6000819050919050565b6126dd816126ca565b81146126e857600080fd5b50565b6000813590506126fa816126d4565b92915050565b6000806040838503121561271757612716612662565b5b6000612725858286016126b5565b9250506020612736858286016126eb565b9150509250929050565b60008115159050919050565b61275581612740565b82525050565b6000602082019050612770600083018461274c565b92915050565b61277f816126ca565b82525050565b600060208201905061279a6000830184612776565b92915050565b6000806000606084860312156127b9576127b8612662565b5b60006127c7868287016126b5565b93505060206127d8868287016126b5565b92505060406127e9868287016126eb565b9150509250925092565b6000806040838503121561280a57612809612662565b5b6000612818858286016126b5565b9250506020612829858286016126b5565b9150509250929050565b6000819050919050565b600061285861285361284e846126ca565b612833565b6126ca565b9050919050565b6128688161283d565b82525050565b6000602082019050612883600083018461285f565b92915050565b600060ff82169050919050565b61289f81612889565b82525050565b60006020820190506128ba6000830184612896565b92915050565b6000819050919050565b6128d3816128c0565b82525050565b60006020820190506128ee60008301846128ca565b92915050565b600080fd5b60006020828403121561290f5761290e6128f4565b5b81905092915050565b6000806040838503121561292f5761292e612662565b5b600061293d858286016126b5565b925050602083013567ffffffffffffffff81111561295e5761295d612667565b5b61296a858286016128f9565b9150509250929050565b60006040828403121561298a576129896128f4565b5b81905092915050565b600080604083850312156129aa576129a9612662565b5b60006129b8858286016126b5565b925050602083013567ffffffffffffffff8111156129d9576129d8612667565b5b6129e585828601612974565b9150509250929050565b600081519050919050565b600082825260208201905092915050565b6000612a16826129ef565b612a2081856129fa565b9350612a308185602086016125c2565b612a39816125ec565b840191505092915050565b60006020820190508181036000830152612a5e8184612a0b565b905092915050565b600080fd5b7f4e487b7100000000000000000000000000000000000000000000000000000000600052604160045260246000fd5b612aa3826125ec565b810181811067ffffffffffffffff82111715612ac257612ac1612a6b565b5b80604052505050565b6000612ad5612658565b9050612ae18282612a9a565b919050565b600080fd5b612af4816128c0565b8114612aff57600080fd5b50565b600081359050612b1181612aeb565b92915050565b600080fd5b600080fd5b600067ffffffffffffffff821115612b3c57612b3b612a6b565b5b612b45826125ec565b9050602081019050919050565b82818337600083830152505050565b6000612b74612b6f84612b21565b612acb565b905082815260208101848484011115612b9057612b8f612b1c565b5b612b9b848285612b52565b509392505050565b600082601f830112612bb857612bb7612b17565b5b8135612bc8848260208601612b61565b91505092915050565b600060408284031215612be757612be6612a66565b5b612bf16040612acb565b90506000612c0184828501612b02565b600083015250602082013567ffffffffffffffff811115612c2557612c24612ae6565b5b612c3184828501612ba3565b60208301525092915050565b60008060408385031215612c5457612c53612662565b5b6000612c62858286016126b5565b925050602083013567ffffffffffffffff811115612c8357612c82612667565b5b612c8f85828601612bd1565b9150509250929050565b600063ffffffff82169050919050565b612cb281612c99565b8114612cbd57600080fd5b50565b600081359050612ccf81612ca9565b92915050565b600060208284031215612ceb57612cea612662565b5b6000612cf984828501612cc0565b91505092915050565b600060208284031215612d1857612d17612662565b5b6000612d26848285016126b5565b91505092915050565b60007fff0000000000000000000000000000000000000000000000000000000000000082169050919050565b612d6481612d2f565b82525050565b612d738161268c565b82525050565b600081519050919050565b600082825260208201905092915050565b6000819050602082019050919050565b612dae816126ca565b82525050565b6000612dc08383612da5565b60208301905092915050565b6000602082019050919050565b6000612de482612d79565b612dee8185612d84565b9350612df983612d95565b8060005b83811015612e2a578151612e118882612db4565b9750612e1c83612dcc565b925050600181019050612dfd565b5085935050505092915050565b600060e082019050612e4c600083018a612d5b565b8181036020830152612e5e81896125fd565b90508181036040830152612e7281886125fd565b9050612e816060830187612776565b612e8e6080830186612d6a565b612e9b60a08301856128ca565b81810360c0830152612ead8184612dd9565b905098975050505050505050565b600080600060608486031215612ed457612ed3612662565b5b6000612ee2868287016126b5565b9350506020612ef3868287016126b5565b925050604084013567ffffffffffffffff811115612f1457612f13612667565b5b612f20868287016128f9565b9150509250925092565b612f33816126ca565b8114612f3e57600080fd5b50565b600081359050612f5081612f2a565b92915050565b600080600060608486031215612f6f57612f6e612662565b5b6000612f7d868287016126b5565b9350506020612f8e868287016126b5565b9250506040612f9f86828701612f41565b9150509250925092565b60008060408385031215612fc057612fbf612662565b5b6000612fce858286016126b5565b9250506020612fdf85828601612f41565b9150509250929050565b612ff281612889565b8114612ffd57600080fd5b50565b60008135905061300f81612fe9565b92915050565b600080600080600080600060e0888a03121561303457613033612662565b5b60006130428a828b016126b5565b97505060206130538a828b016126b5565b96505060406130648a828b016126eb565b95505060606130758a828b016126eb565b94505060806130868a828b01613000565b93505060a06130978a828b01612b02565b92505060c06130a88a828b01612b02565b91505092959891949750929550565b7f4e487b7100000000000000000000000000000000000000000000000000000000600052602260045260246000fd5b600060028204905060018216806130fe57607f821691505b602082108103613111576131106130b7565b5b50919050565b60006020828403121561312d5761312c612a66565b5b6131376020612acb565b9050600082013567ffffffffffffffff81111561315757613156612ae6565b5b61316384828501612ba3565b60008301525092915050565b600061317b3683613117565b9050919050565b600061318e3683612bd1565b9050919050565b60006040820190506131aa60008301856128ca565b6131b760208301846128ca565b9392505050565b60006040820190506131d36000830185612896565b81810360208301526131e58184612a0b565b90509392505050565b6000815190506131fd816126d4565b92915050565b60006020828403121561321957613218612662565b5b6000613227848285016131ee565b91505092915050565b60006020820190506132456000830184612d6a565b92915050565b7f4e487b7100000000000000000000000000000000000000000000000000000000600052602160045260246000fd5b6000819050919050565b613295613290826128c0565b61327a565b82525050565b60006132a78284613284565b60208201915081905092915050565b60006060820190506132cb6000830186612896565b81810360208301526132dd8185612a0b565b905081810360408301526132f18184612a0b565b9050949350505050565b600061330e61330984612b21565b612acb565b90508281526020810184848401111561332a57613329612b1c565b5b6133358482856125c2565b509392505050565b600082601f83011261335257613351612b17565b5b81516133628482602086016132fb565b91505092915050565b60006020828403121561338157613380612662565b5b600082015167ffffffffffffffff81111561339f5761339e612667565b5b6133ab8482850161333d565b91505092915050565b600060408201905081810360008301526133ce8185612a0b565b90506133dd6020830184612896565b9392505050565b60006080820190506133f96000830187612896565b818103602083015261340b8186612a0b565b9050818103604083015261341f8185612a0b565b905081810360608301526134338184612a0b565b905095945050505050565b600060a08201905061345360008301886128ca565b61346060208301876128ca565b61346d60408301866128ca565b61347a6060830185612776565b6134876080830184612d6a565b9695505050505050565b60006080820190506134a660008301876128ca565b6134b36020830186612896565b6134c060408301856128ca565b6134cd60608301846128ca565b9594505050505056fea2646970667358221220ca2ced68aab45d9eae4df934a688db70823a809fb52d76edcdaa79b0ecec7ab564736f6c63430008180033",
  "devdoc": {
    "errors": {
      "AllowanceOverflow()": [
        {
          "details": "The allowance has overflowed."
        }
      ],
      "AllowanceUnderflow()": [
        {
          "details": "The allowance has underflowed."
        }
      ],
      "ECDSAInvalidSignature()": [
        {
          "details": "The signature derives the `address(0)`."
        }
      ],
      "ECDSAInvalidSignatureLength(uint256)": [
        {
          "details": "The signature has an invalid length."
        }
      ],
      "ECDSAInvalidSignatureS(bytes32)": [
        {
          "details": "The signature has an S value that is in the upper half order."
        }
      ],
      "InsufficientAllowance()": [
        {
          "details": "Insufficient allowance."
        }
      ],
      "InsufficientBalance()": [
        {
          "details": "Insufficient balance."
        }
      ],
      "InvalidPermit()": [
        {
          "details": "The permit is invalid."
        }
      ],
      "PermitExpired()": [
        {
          "details": "The permit has expired."
        }
      ],
      "TotalSupplyOverflow()": [
        {
          "details": "The total supply has overflowed."
        }
      ]
    },
    "events": {
      "Approval(address,address,uint256)": {
        "details": "Emitted when `amount` tokens is approved by `owner` to be used by `spender`."
      },
      "ApprovalEncrypted(address,address)": {
        "details": "Emitted when the allowance of a `spender` for an `owner` is set by a call to {approveEncrypted}. `value` is the new allowance."
      },
      "EIP712DomainChanged()": {
        "details": "MAY be emitted to signal that the domain could have changed."
      },
      "Transfer(address,address,uint256)": {
        "details": "Emitted when `amount` tokens is transferred from `from` to `to`."
      },
      "TransferEncrypted(address,address)": {
        "details": "Emitted when `value` tokens are moved from one account (`from`) to another (`to`). Note that `value` may be zero."
      }
    },
    "kind": "dev",
    "methods": {
      "DOMAIN_SEPARATOR()": {
        "details": "Returns the EIP-712 domain separator for the EIP-2612 permit."
      },
      "allowance(address,address)": {
        "details": "Returns the amount of tokens that `spender` can spend on behalf of `owner`."
      },
      "allowanceEncrypted(address,(bytes32,bytes))": {
        "details": "Returns the remaining number of tokens that `spender` will be allowed to spend on behalf of `owner` through {transferFrom}. This is zero by default. This value changes when {approve} or {transferFrom} are called."
      },
      "approve(address,uint256)": {
        "details": "Sets `amount` as the allowance of `spender` over the caller's tokens. Emits a {Approval} event."
      },
      "approveEncrypted(address,(bytes))": {
        "details": "Sets a `value` amount of tokens as the allowance of `spender` over the caller's tokens. Returns a boolean value indicating whether the operation succeeded. IMPORTANT: Beware that changing an allowance with this method brings the risk that someone may use both the old and the new allowance by unfortunate transaction ordering. One possible solution to mitigate this race condition is to first reduce the spender's allowance to 0 and set the desired value afterwards: https://github.com/ethereum/EIPs/issues/20#issuecomment-263524729 Emits an {ApprovalEncrypted} event."
      },
      "balanceOf(address)": {
        "details": "Returns the amount of tokens owned by `owner`."
      },
      "balanceOfEncrypted(address,(bytes32,bytes))": {
        "details": "Returns the value of tokens owned by `account`, sealed and encrypted for the caller."
      },
      "decimals()": {
        "details": "Returns the decimals places of the token."
      },
      "eip712Domain()": {
        "details": "See {IERC-5267}."
      },
      "name()": {
        "details": "Returns the name of the token."
      },
      "nonces(address)": {
        "details": "Returns the current nonce for `owner`. This value is used to compute the signature for EIP-2612 permit."
      },
      "permit(address,address,uint256,uint256,uint8,bytes32,bytes32)": {
        "details": "Sets `value` as the allowance of `spender` over the tokens of `owner`, authorized by a signed approval by `owner`. Emits a {Approval} event."
      },
      "symbol()": {
        "details": "Returns the symbol of the token."
      },
      "totalSupply()": {
        "details": "Returns the amount of tokens in existence."
      },
      "transfer(address,uint256)": {
        "details": "Transfer `amount` tokens from the caller to `to`. Requirements: - `from` must at least have `amount`. Emits a {Transfer} event."
      },
      "transferFrom(address,address,uint256)": {
        "details": "Transfers `amount` tokens from `from` to `to`. Note: Does not update the allowance if it is the maximum uint256 value. Requirements: - `from` must at least have `amount`. - The caller must have at least `amount` of allowance to transfer the tokens of `from`. Emits a {Transfer} event."
      },
      "transferFromEncrypted(address,address,(bytes))": {
        "details": "Moves a `value` amount of tokens from `from` to `to` using the allowance mechanism. `value` is then deducted from the caller's allowance. Returns a boolean value indicating whether the operation succeeded. Emits a {TransferEncrypted} event."
      }
    },
    "version": 1
  },
  "userdoc": {
    "errors": {
      "SignerNotMessageSender()": [
        {
          "notice": "Emitted when the signer is not the message sender"
        }
      ],
      "SignerNotOwner()": [
        {
          "notice": "Emitted when the signer is not the specified owner"
        }
      ]
    },
    "kind": "user",
    "methods": {},
    "version": 1
  },
  "storageLayout": {
    "storage": [
      {
        "astId": 9854,
        "contract": "contracts/libraries/FHERC20Mintable.sol:FHERC20Mintable",
        "label": "_nameFallback",
        "offset": 0,
        "slot": "0",
        "type": "t_string_storage"
      },
      {
        "astId": 9856,
        "contract": "contracts/libraries/FHERC20Mintable.sol:FHERC20Mintable",
        "label": "_versionFallback",
        "offset": 0,
        "slot": "1",
        "type": "t_string_storage"
      },
      {
        "astId": 11417,
        "contract": "contracts/libraries/FHERC20Mintable.sol:FHERC20Mintable",
        "label": "_encBalances",
        "offset": 0,
        "slot": "2",
        "type": "t_mapping(t_address,t_userDefinedValueType(euint32)12)"
      },
      {
        "astId": 11424,
        "contract": "contracts/libraries/FHERC20Mintable.sol:FHERC20Mintable",
        "label": "_allowed",
        "offset": 0,
        "slot": "3",
        "type": "t_mapping(t_address,t_mapping(t_address,t_userDefinedValueType(euint32)12))"
      },
      {
        "astId": 11431,
        "contract": "contracts/libraries/FHERC20Mintable.sol:FHERC20Mintable",
        "label": "totalEncryptedSupply",
        "offset": 0,
        "slot": "4",
        "type": "t_userDefinedValueType(euint32)12"
      },
      {
        "astId": 11433,
        "contract": "contracts/libraries/FHERC20Mintable.sol:FHERC20Mintable",
        "label": "_name",
        "offset": 0,
        "slot": "5",
        "type": "t_string_storage"
      },
      {
        "astId": 11435,
        "contract": "contracts/libraries/FHERC20Mintable.sol:FHERC20Mintable",
        "label": "_symbol",
        "offset": 0,
        "slot": "6",
        "type": "t_string_storage"
      },
      {
        "astId": 12017,
        "contract": "contracts/libraries/FHERC20Mintable.sol:FHERC20Mintable",
        "label": "totalEncryptedSupplyCap",
        "offset": 0,
        "slot": "7",
        "type": "t_userDefinedValueType(euint32)12"
      }
    ],
    "types": {
      "t_address": {
        "encoding": "inplace",
        "label": "address",
        "numberOfBytes": "20"
      },
      "t_mapping(t_address,t_mapping(t_address,t_userDefinedValueType(euint32)12))": {
        "encoding": "mapping",
        "key": "t_address",
        "label": "mapping(address => mapping(address => euint32))",
        "numberOfBytes": "32",
        "value": "t_mapping(t_address,t_userDefinedValueType(euint32)12)"
      },
      "t_mapping(t_address,t_userDefinedValueType(euint32)12)": {
        "encoding": "mapping",
        "key": "t_address",
        "label": "mapping(address => euint32)",
        "numberOfBytes": "32",
        "value": "t_userDefinedValueType(euint32)12"
      },
      "t_string_storage": {
        "encoding": "bytes",
        "label": "string",
        "numberOfBytes": "32"
      },
      "t_userDefinedValueType(euint32)12": {
        "encoding": "inplace",
        "label": "euint32",
        "numberOfBytes": "32"
      }
    }
  }
}